{
	"contracts/BeggingContract.sol": {
		"BeggingContract": {
			"abi": [
				{
					"inputs": [],
					"stateMutability": "nonpayable",
					"type": "constructor"
				},
				{
					"inputs": [
						{
							"internalType": "address",
							"name": "owner",
							"type": "address"
						}
					],
					"name": "OwnableInvalidOwner",
					"type": "error"
				},
				{
					"inputs": [
						{
							"internalType": "address",
							"name": "account",
							"type": "address"
						}
					],
					"name": "OwnableUnauthorizedAccount",
					"type": "error"
				},
				{
					"anonymous": false,
					"inputs": [
						{
							"indexed": true,
							"internalType": "address",
							"name": "donor",
							"type": "address"
						},
						{
							"indexed": false,
							"internalType": "uint256",
							"name": "amount",
							"type": "uint256"
						},
						{
							"indexed": false,
							"internalType": "uint256",
							"name": "timestamp",
							"type": "uint256"
						}
					],
					"name": "Donation",
					"type": "event"
				},
				{
					"anonymous": false,
					"inputs": [
						{
							"indexed": true,
							"internalType": "address",
							"name": "previousOwner",
							"type": "address"
						},
						{
							"indexed": true,
							"internalType": "address",
							"name": "newOwner",
							"type": "address"
						}
					],
					"name": "OwnershipTransferred",
					"type": "event"
				},
				{
					"anonymous": false,
					"inputs": [
						{
							"indexed": true,
							"internalType": "address",
							"name": "owner",
							"type": "address"
						},
						{
							"indexed": false,
							"internalType": "uint256",
							"name": "amount",
							"type": "uint256"
						},
						{
							"indexed": false,
							"internalType": "uint256",
							"name": "timestamp",
							"type": "uint256"
						}
					],
					"name": "Withdraw",
					"type": "event"
				},
				{
					"inputs": [],
					"name": "donate",
					"outputs": [],
					"stateMutability": "payable",
					"type": "function"
				},
				{
					"inputs": [],
					"name": "donationEndTimestamp",
					"outputs": [
						{
							"internalType": "uint256",
							"name": "",
							"type": "uint256"
						}
					],
					"stateMutability": "view",
					"type": "function"
				},
				{
					"inputs": [],
					"name": "donationStartTimestamp",
					"outputs": [
						{
							"internalType": "uint256",
							"name": "",
							"type": "uint256"
						}
					],
					"stateMutability": "view",
					"type": "function"
				},
				{
					"inputs": [],
					"name": "getContractBalance",
					"outputs": [
						{
							"internalType": "uint256",
							"name": "",
							"type": "uint256"
						}
					],
					"stateMutability": "view",
					"type": "function"
				},
				{
					"inputs": [
						{
							"internalType": "address",
							"name": "donor",
							"type": "address"
						}
					],
					"name": "getDonation",
					"outputs": [
						{
							"internalType": "uint256",
							"name": "",
							"type": "uint256"
						}
					],
					"stateMutability": "view",
					"type": "function"
				},
				{
					"inputs": [],
					"name": "getDonors",
					"outputs": [
						{
							"internalType": "address[]",
							"name": "",
							"type": "address[]"
						}
					],
					"stateMutability": "view",
					"type": "function"
				},
				{
					"inputs": [],
					"name": "getRemainingTime",
					"outputs": [
						{
							"internalType": "uint256",
							"name": "",
							"type": "uint256"
						}
					],
					"stateMutability": "view",
					"type": "function"
				},
				{
					"inputs": [],
					"name": "getTopDonors",
					"outputs": [
						{
							"internalType": "address[]",
							"name": "",
							"type": "address[]"
						},
						{
							"internalType": "uint256[]",
							"name": "",
							"type": "uint256[]"
						}
					],
					"stateMutability": "view",
					"type": "function"
				},
				{
					"inputs": [],
					"name": "owner",
					"outputs": [
						{
							"internalType": "address",
							"name": "",
							"type": "address"
						}
					],
					"stateMutability": "view",
					"type": "function"
				},
				{
					"inputs": [],
					"name": "renounceOwnership",
					"outputs": [],
					"stateMutability": "nonpayable",
					"type": "function"
				},
				{
					"inputs": [
						{
							"internalType": "address",
							"name": "newOwner",
							"type": "address"
						}
					],
					"name": "transferOwnership",
					"outputs": [],
					"stateMutability": "nonpayable",
					"type": "function"
				},
				{
					"inputs": [],
					"name": "withdraw",
					"outputs": [],
					"stateMutability": "nonpayable",
					"type": "function"
				}
			],
			"devdoc": {
				"errors": {
					"OwnableInvalidOwner(address)": [
						{
							"details": "The owner is not a valid owner account. (eg. `address(0)`)"
						}
					],
					"OwnableUnauthorizedAccount(address)": [
						{
							"details": "The caller account is not authorized to perform an operation."
						}
					]
				},
				"kind": "dev",
				"methods": {
					"owner()": {
						"details": "Returns the address of the current owner."
					},
					"renounceOwnership()": {
						"details": "Leaves the contract without owner. It will not be possible to call `onlyOwner` functions. Can only be called by the current owner. NOTE: Renouncing ownership will leave the contract without an owner, thereby disabling any functionality that is only available to the owner."
					},
					"transferOwnership(address)": {
						"details": "Transfers ownership of the contract to a new account (`newOwner`). Can only be called by the current owner."
					}
				},
				"version": 1
			},
			"evm": {
				"assembly": "    /* \"contracts/BeggingContract.sol\":143:4912  contract BeggingContract is Ownable {... */\n  mstore(0x40, 0x80)\n    /* \"contracts/BeggingContract.sol\":579:732  constructor()Ownable(msg.sender){... */\n  callvalue\n  dup1\n  iszero\n  tag_1\n  jumpi\n  0x00\n  dup1\n  revert\ntag_1:\n  pop\n    /* \"contracts/BeggingContract.sol\":600:610  msg.sender */\n  caller\n    /* \"@openzeppelin/contracts/access/Ownable.sol\":1297:1298  0 */\n  0x00\n    /* \"@openzeppelin/contracts/access/Ownable.sol\":1273:1299  initialOwner == address(0) */\n  0xffffffffffffffffffffffffffffffffffffffff\n  and\n    /* \"@openzeppelin/contracts/access/Ownable.sol\":1273:1285  initialOwner */\n  dup2\n    /* \"@openzeppelin/contracts/access/Ownable.sol\":1273:1299  initialOwner == address(0) */\n  0xffffffffffffffffffffffffffffffffffffffff\n  and\n  sub\n    /* \"@openzeppelin/contracts/access/Ownable.sol\":1269:1364  if (initialOwner == address(0)) {... */\n  tag_5\n  jumpi\n    /* \"@openzeppelin/contracts/access/Ownable.sol\":1350:1351  0 */\n  0x00\n    /* \"@openzeppelin/contracts/access/Ownable.sol\":1322:1353  OwnableInvalidOwner(address(0)) */\n  mload(0x40)\n  0x1e4fbdf700000000000000000000000000000000000000000000000000000000\n  dup2\n  mstore\n  0x04\n  add\n  tag_6\n  swap2\n  swap1\n  tag_7\n  jump\t// in\ntag_6:\n  mload(0x40)\n  dup1\n  swap2\n  sub\n  swap1\n  revert\n    /* \"@openzeppelin/contracts/access/Ownable.sol\":1269:1364  if (initialOwner == address(0)) {... */\ntag_5:\n    /* \"@openzeppelin/contracts/access/Ownable.sol\":1373:1405  _transferOwnership(initialOwner) */\n  tag_8\n    /* \"@openzeppelin/contracts/access/Ownable.sol\":1392:1404  initialOwner */\n  dup2\n    /* \"@openzeppelin/contracts/access/Ownable.sol\":1373:1391  _transferOwnership */\n  shl(0x20, tag_9)\n    /* \"@openzeppelin/contracts/access/Ownable.sol\":1373:1405  _transferOwnership(initialOwner) */\n  0x20\n  shr\n  jump\t// in\ntag_8:\n    /* \"@openzeppelin/contracts/access/Ownable.sol\":1225:1412  constructor(address initialOwner) {... */\n  pop\n    /* \"contracts/BeggingContract.sol\":646:661  block.timestamp */\n  timestamp\n    /* \"contracts/BeggingContract.sol\":621:643  donationStartTimestamp */\n  0x01\n    /* \"contracts/BeggingContract.sol\":621:661  donationStartTimestamp = block.timestamp */\n  dup2\n  swap1\n  sstore\n  pop\n    /* \"contracts/BeggingContract.sol\":719:725  3 days */\n  0x03f480\n    /* \"contracts/BeggingContract.sol\":694:716  donationStartTimestamp */\n  sload(0x01)\n    /* \"contracts/BeggingContract.sol\":694:725  donationStartTimestamp + 3 days */\n  tag_11\n  swap2\n  swap1\n  tag_12\n  jump\t// in\ntag_11:\n    /* \"contracts/BeggingContract.sol\":671:691  donationEndTimestamp */\n  0x02\n    /* \"contracts/BeggingContract.sol\":671:725  donationEndTimestamp = donationStartTimestamp + 3 days */\n  dup2\n  swap1\n  sstore\n  pop\n    /* \"contracts/BeggingContract.sol\":143:4912  contract BeggingContract is Ownable {... */\n  jump(tag_13)\n    /* \"@openzeppelin/contracts/access/Ownable.sol\":2912:3099  function _transferOwnership(address newOwner) internal virtual {... */\ntag_9:\n    /* \"@openzeppelin/contracts/access/Ownable.sol\":2985:3001  address oldOwner */\n  0x00\n    /* \"@openzeppelin/contracts/access/Ownable.sol\":3004:3010  _owner */\n  dup1\n  0x00\n  swap1\n  sload\n  swap1\n  0x0100\n  exp\n  swap1\n  div\n  0xffffffffffffffffffffffffffffffffffffffff\n  and\n    /* \"@openzeppelin/contracts/access/Ownable.sol\":2985:3010  address oldOwner = _owner */\n  swap1\n  pop\n    /* \"@openzeppelin/contracts/access/Ownable.sol\":3029:3037  newOwner */\n  dup2\n    /* \"@openzeppelin/contracts/access/Ownable.sol\":3020:3026  _owner */\n  0x00\n  dup1\n    /* \"@openzeppelin/contracts/access/Ownable.sol\":3020:3037  _owner = newOwner */\n  0x0100\n  exp\n  dup2\n  sload\n  dup2\n  0xffffffffffffffffffffffffffffffffffffffff\n  mul\n  not\n  and\n  swap1\n  dup4\n  0xffffffffffffffffffffffffffffffffffffffff\n  and\n  mul\n  or\n  swap1\n  sstore\n  pop\n    /* \"@openzeppelin/contracts/access/Ownable.sol\":3083:3091  newOwner */\n  dup2\n    /* \"@openzeppelin/contracts/access/Ownable.sol\":3052:3092  OwnershipTransferred(oldOwner, newOwner) */\n  0xffffffffffffffffffffffffffffffffffffffff\n  and\n    /* \"@openzeppelin/contracts/access/Ownable.sol\":3073:3081  oldOwner */\n  dup2\n    /* \"@openzeppelin/contracts/access/Ownable.sol\":3052:3092  OwnershipTransferred(oldOwner, newOwner) */\n  0xffffffffffffffffffffffffffffffffffffffff\n  and\n  0x8be0079c531659141344cd1fd0a4f28419497f9722a3daafe3b4186f6b6457e0\n  mload(0x40)\n  mload(0x40)\n  dup1\n  swap2\n  sub\n  swap1\n  log3\n    /* \"@openzeppelin/contracts/access/Ownable.sol\":2975:3099  {... */\n  pop\n    /* \"@openzeppelin/contracts/access/Ownable.sol\":2912:3099  function _transferOwnership(address newOwner) internal virtual {... */\n  pop\n  jump\t// out\n    /* \"#utility.yul\":7:133   */\ntag_15:\n    /* \"#utility.yul\":44:51   */\n  0x00\n    /* \"#utility.yul\":84:126   */\n  0xffffffffffffffffffffffffffffffffffffffff\n    /* \"#utility.yul\":77:82   */\n  dup3\n    /* \"#utility.yul\":73:127   */\n  and\n    /* \"#utility.yul\":62:127   */\n  swap1\n  pop\n    /* \"#utility.yul\":7:133   */\n  swap2\n  swap1\n  pop\n  jump\t// out\n    /* \"#utility.yul\":139:235   */\ntag_16:\n    /* \"#utility.yul\":176:183   */\n  0x00\n    /* \"#utility.yul\":205:229   */\n  tag_23\n    /* \"#utility.yul\":223:228   */\n  dup3\n    /* \"#utility.yul\":205:229   */\n  tag_15\n  jump\t// in\ntag_23:\n    /* \"#utility.yul\":194:229   */\n  swap1\n  pop\n    /* \"#utility.yul\":139:235   */\n  swap2\n  swap1\n  pop\n  jump\t// out\n    /* \"#utility.yul\":241:359   */\ntag_17:\n    /* \"#utility.yul\":328:352   */\n  tag_25\n    /* \"#utility.yul\":346:351   */\n  dup2\n    /* \"#utility.yul\":328:352   */\n  tag_16\n  jump\t// in\ntag_25:\n    /* \"#utility.yul\":323:326   */\n  dup3\n    /* \"#utility.yul\":316:353   */\n  mstore\n    /* \"#utility.yul\":241:359   */\n  pop\n  pop\n  jump\t// out\n    /* \"#utility.yul\":365:587   */\ntag_7:\n    /* \"#utility.yul\":458:462   */\n  0x00\n    /* \"#utility.yul\":496:498   */\n  0x20\n    /* \"#utility.yul\":485:494   */\n  dup3\n    /* \"#utility.yul\":481:499   */\n  add\n    /* \"#utility.yul\":473:499   */\n  swap1\n  pop\n    /* \"#utility.yul\":509:580   */\n  tag_27\n    /* \"#utility.yul\":577:578   */\n  0x00\n    /* \"#utility.yul\":566:575   */\n  dup4\n    /* \"#utility.yul\":562:579   */\n  add\n    /* \"#utility.yul\":553:559   */\n  dup5\n    /* \"#utility.yul\":509:580   */\n  tag_17\n  jump\t// in\ntag_27:\n    /* \"#utility.yul\":365:587   */\n  swap3\n  swap2\n  pop\n  pop\n  jump\t// out\n    /* \"#utility.yul\":593:670   */\ntag_18:\n    /* \"#utility.yul\":630:637   */\n  0x00\n    /* \"#utility.yul\":659:664   */\n  dup2\n    /* \"#utility.yul\":648:664   */\n  swap1\n  pop\n    /* \"#utility.yul\":593:670   */\n  swap2\n  swap1\n  pop\n  jump\t// out\n    /* \"#utility.yul\":676:856   */\ntag_19:\n    /* \"#utility.yul\":724:801   */\n  0x4e487b7100000000000000000000000000000000000000000000000000000000\n    /* \"#utility.yul\":721:722   */\n  0x00\n    /* \"#utility.yul\":714:802   */\n  mstore\n    /* \"#utility.yul\":821:825   */\n  0x11\n    /* \"#utility.yul\":818:819   */\n  0x04\n    /* \"#utility.yul\":811:826   */\n  mstore\n    /* \"#utility.yul\":845:849   */\n  0x24\n    /* \"#utility.yul\":842:843   */\n  0x00\n    /* \"#utility.yul\":835:850   */\n  revert\n    /* \"#utility.yul\":862:1053   */\ntag_12:\n    /* \"#utility.yul\":902:905   */\n  0x00\n    /* \"#utility.yul\":921:941   */\n  tag_31\n    /* \"#utility.yul\":939:940   */\n  dup3\n    /* \"#utility.yul\":921:941   */\n  tag_18\n  jump\t// in\ntag_31:\n    /* \"#utility.yul\":916:941   */\n  swap2\n  pop\n    /* \"#utility.yul\":955:975   */\n  tag_32\n    /* \"#utility.yul\":973:974   */\n  dup4\n    /* \"#utility.yul\":955:975   */\n  tag_18\n  jump\t// in\ntag_32:\n    /* \"#utility.yul\":950:975   */\n  swap3\n  pop\n    /* \"#utility.yul\":998:999   */\n  dup3\n    /* \"#utility.yul\":995:996   */\n  dup3\n    /* \"#utility.yul\":991:1000   */\n  add\n    /* \"#utility.yul\":984:1000   */\n  swap1\n  pop\n    /* \"#utility.yul\":1019:1022   */\n  dup1\n    /* \"#utility.yul\":1016:1017   */\n  dup3\n    /* \"#utility.yul\":1013:1023   */\n  gt\n    /* \"#utility.yul\":1010:1046   */\n  iszero\n  tag_33\n  jumpi\n    /* \"#utility.yul\":1026:1044   */\n  tag_34\n  tag_19\n  jump\t// in\ntag_34:\n    /* \"#utility.yul\":1010:1046   */\ntag_33:\n    /* \"#utility.yul\":862:1053   */\n  swap3\n  swap2\n  pop\n  pop\n  jump\t// out\n    /* \"contracts/BeggingContract.sol\":143:4912  contract BeggingContract is Ownable {... */\ntag_13:\n  dataSize(sub_0)\n  dup1\n  dataOffset(sub_0)\n  0x00\n  codecopy\n  0x00\n  return\nstop\n\nsub_0: assembly {\n        /* \"contracts/BeggingContract.sol\":143:4912  contract BeggingContract is Ownable {... */\n      mstore(0x40, 0x80)\n      jumpi(tag_1, lt(calldatasize, 0x04))\n      shr(0xe0, calldataload(0x00))\n      dup1\n      0xd6387ed8\n      gt\n      tag_14\n      jumpi\n      dup1\n      0xd6387ed8\n      eq\n      tag_8\n      jumpi\n      dup1\n      0xd75d0846\n      eq\n      tag_9\n      jumpi\n      dup1\n      0xe2f2e665\n      eq\n      tag_10\n      jumpi\n      dup1\n      0xed88c68e\n      eq\n      tag_11\n      jumpi\n      dup1\n      0xefb98bcf\n      eq\n      tag_12\n      jumpi\n      dup1\n      0xf2fde38b\n      eq\n      tag_13\n      jumpi\n      jump(tag_1)\n    tag_14:\n      dup1\n      0x3ccfd60b\n      eq\n      tag_2\n      jumpi\n      dup1\n      0x410a1d32\n      eq\n      tag_3\n      jumpi\n      dup1\n      0x6f9fb98a\n      eq\n      tag_4\n      jumpi\n      dup1\n      0x715018a6\n      eq\n      tag_5\n      jumpi\n      dup1\n      0x8da5cb5b\n      eq\n      tag_6\n      jumpi\n      dup1\n      0x96f300d4\n      eq\n      tag_7\n      jumpi\n    tag_1:\n      0x00\n      dup1\n      revert\n        /* \"contracts/BeggingContract.sol\":1851:2289  function withdraw() external onlyOwner {... */\n    tag_2:\n      callvalue\n      dup1\n      iszero\n      tag_15\n      jumpi\n      0x00\n      dup1\n      revert\n    tag_15:\n      pop\n      tag_16\n      tag_17\n      jump\t// in\n    tag_16:\n      stop\n        /* \"contracts/BeggingContract.sol\":2374:2483  function getDonation(address donor) external view returns (uint256) {... */\n    tag_3:\n      callvalue\n      dup1\n      iszero\n      tag_18\n      jumpi\n      0x00\n      dup1\n      revert\n    tag_18:\n      pop\n      tag_19\n      0x04\n      dup1\n      calldatasize\n      sub\n      dup2\n      add\n      swap1\n      tag_20\n      swap2\n      swap1\n      tag_21\n      jump\t// in\n    tag_20:\n      tag_22\n      jump\t// in\n    tag_19:\n      mload(0x40)\n      tag_23\n      swap2\n      swap1\n      tag_24\n      jump\t// in\n    tag_23:\n      mload(0x40)\n      dup1\n      swap2\n      sub\n      swap1\n      return\n        /* \"contracts/BeggingContract.sol\":2524:2631  function getContractBalance() external view returns (uint256) {... */\n    tag_4:\n      callvalue\n      dup1\n      iszero\n      tag_25\n      jumpi\n      0x00\n      dup1\n      revert\n    tag_25:\n      pop\n      tag_26\n      tag_27\n      jump\t// in\n    tag_26:\n      mload(0x40)\n      tag_28\n      swap2\n      swap1\n      tag_24\n      jump\t// in\n    tag_28:\n      mload(0x40)\n      dup1\n      swap2\n      sub\n      swap1\n      return\n        /* \"@openzeppelin/contracts/access/Ownable.sol\":2293:2394  function renounceOwnership() public virtual onlyOwner {... */\n    tag_5:\n      callvalue\n      dup1\n      iszero\n      tag_29\n      jumpi\n      0x00\n      dup1\n      revert\n    tag_29:\n      pop\n      tag_30\n      tag_31\n      jump\t// in\n    tag_30:\n      stop\n        /* \"@openzeppelin/contracts/access/Ownable.sol\":1638:1723  function owner() public view virtual returns (address) {... */\n    tag_6:\n      callvalue\n      dup1\n      iszero\n      tag_32\n      jumpi\n      0x00\n      dup1\n      revert\n    tag_32:\n      pop\n      tag_33\n      tag_34\n      jump\t// in\n    tag_33:\n      mload(0x40)\n      tag_35\n      swap2\n      swap1\n      tag_36\n      jump\t// in\n    tag_35:\n      mload(0x40)\n      dup1\n      swap2\n      sub\n      swap1\n      return\n        /* \"contracts/BeggingContract.sol\":2672:2765  function getDonors() external view returns (address[] memory) {... */\n    tag_7:\n      callvalue\n      dup1\n      iszero\n      tag_37\n      jumpi\n      0x00\n      dup1\n      revert\n    tag_37:\n      pop\n      tag_38\n      tag_39\n      jump\t// in\n    tag_38:\n      mload(0x40)\n      tag_40\n      swap2\n      swap1\n      tag_41\n      jump\t// in\n    tag_40:\n      mload(0x40)\n      dup1\n      swap2\n      sub\n      swap1\n      return\n        /* \"contracts/BeggingContract.sol\":2863:4684  function getTopDonors() external view returns (address[] memory,uint256[] memory) {... */\n    tag_8:\n      callvalue\n      dup1\n      iszero\n      tag_42\n      jumpi\n      0x00\n      dup1\n      revert\n    tag_42:\n      pop\n      tag_43\n      tag_44\n      jump\t// in\n    tag_43:\n      mload(0x40)\n      tag_45\n      swap3\n      swap2\n      swap1\n      tag_46\n      jump\t// in\n    tag_45:\n      mload(0x40)\n      dup1\n      swap2\n      sub\n      swap1\n      return\n        /* \"contracts/BeggingContract.sol\":277:314  uint256 public donationStartTimestamp */\n    tag_9:\n      callvalue\n      dup1\n      iszero\n      tag_47\n      jumpi\n      0x00\n      dup1\n      revert\n    tag_47:\n      pop\n      tag_48\n      tag_49\n      jump\t// in\n    tag_48:\n      mload(0x40)\n      tag_50\n      swap2\n      swap1\n      tag_24\n      jump\t// in\n    tag_50:\n      mload(0x40)\n      dup1\n      swap2\n      sub\n      swap1\n      return\n        /* \"contracts/BeggingContract.sol\":320:355  uint256 public donationEndTimestamp */\n    tag_10:\n      callvalue\n      dup1\n      iszero\n      tag_51\n      jumpi\n      0x00\n      dup1\n      revert\n    tag_51:\n      pop\n      tag_52\n      tag_53\n      jump\t// in\n    tag_52:\n      mload(0x40)\n      tag_54\n      swap2\n      swap1\n      tag_24\n      jump\t// in\n    tag_54:\n      mload(0x40)\n      dup1\n      swap2\n      sub\n      swap1\n      return\n        /* \"contracts/BeggingContract.sol\":1283:1770  function donate() external payable{... */\n    tag_11:\n      tag_55\n      tag_56\n      jump\t// in\n    tag_55:\n      stop\n        /* \"contracts/BeggingContract.sol\":4726:4910  function getRemainingTime() external view returns (uint256) {... */\n    tag_12:\n      callvalue\n      dup1\n      iszero\n      tag_57\n      jumpi\n      0x00\n      dup1\n      revert\n    tag_57:\n      pop\n      tag_58\n      tag_59\n      jump\t// in\n    tag_58:\n      mload(0x40)\n      tag_60\n      swap2\n      swap1\n      tag_24\n      jump\t// in\n    tag_60:\n      mload(0x40)\n      dup1\n      swap2\n      sub\n      swap1\n      return\n        /* \"@openzeppelin/contracts/access/Ownable.sol\":2543:2758  function transferOwnership(address newOwner) public virtual onlyOwner {... */\n    tag_13:\n      callvalue\n      dup1\n      iszero\n      tag_61\n      jumpi\n      0x00\n      dup1\n      revert\n    tag_61:\n      pop\n      tag_62\n      0x04\n      dup1\n      calldatasize\n      sub\n      dup2\n      add\n      swap1\n      tag_63\n      swap2\n      swap1\n      tag_21\n      jump\t// in\n    tag_63:\n      tag_64\n      jump\t// in\n    tag_62:\n      stop\n        /* \"contracts/BeggingContract.sol\":1851:2289  function withdraw() external onlyOwner {... */\n    tag_17:\n        /* \"@openzeppelin/contracts/access/Ownable.sol\":1531:1544  _checkOwner() */\n      tag_66\n        /* \"@openzeppelin/contracts/access/Ownable.sol\":1531:1542  _checkOwner */\n      tag_67\n        /* \"@openzeppelin/contracts/access/Ownable.sol\":1531:1544  _checkOwner() */\n      jump\t// in\n    tag_66:\n        /* \"contracts/BeggingContract.sol\":1949:1964  uint256 balance */\n      0x00\n        /* \"contracts/BeggingContract.sol\":1967:1988  address(this).balance */\n      selfbalance\n        /* \"contracts/BeggingContract.sol\":1949:1988  uint256 balance = address(this).balance */\n      swap1\n      pop\n        /* \"contracts/BeggingContract.sol\":2016:2017  0 */\n      0x00\n        /* \"contracts/BeggingContract.sol\":2006:2013  balance */\n      dup2\n        /* \"contracts/BeggingContract.sol\":2006:2017  balance > 0 */\n      gt\n        /* \"contracts/BeggingContract.sol\":1998:2062  require(balance > 0,unicode\"合约中没有可提取的资金!\") */\n      tag_69\n      jumpi\n      mload(0x40)\n      0x08c379a000000000000000000000000000000000000000000000000000000000\n      dup2\n      mstore\n      0x04\n      add\n      tag_70\n      swap1\n      tag_71\n      jump\t// in\n    tag_70:\n      mload(0x40)\n      dup1\n      swap2\n      sub\n      swap1\n      revert\n    tag_69:\n        /* \"contracts/BeggingContract.sol\":2132:2145  address owner */\n      0x00\n        /* \"contracts/BeggingContract.sol\":2148:2155  owner() */\n      tag_72\n        /* \"contracts/BeggingContract.sol\":2148:2153  owner */\n      tag_34\n        /* \"contracts/BeggingContract.sol\":2148:2155  owner() */\n      jump\t// in\n    tag_72:\n        /* \"contracts/BeggingContract.sol\":2132:2155  address owner = owner() */\n      swap1\n      pop\n        /* \"contracts/BeggingContract.sol\":2173:2178  owner */\n      dup1\n        /* \"contracts/BeggingContract.sol\":2165:2188  payable(owner).transfer */\n      0xffffffffffffffffffffffffffffffffffffffff\n      and\n        /* \"contracts/BeggingContract.sol\":2165:2197  payable(owner).transfer(balance) */\n      0x08fc\n        /* \"contracts/BeggingContract.sol\":2189:2196  balance */\n      dup4\n        /* \"contracts/BeggingContract.sol\":2165:2197  payable(owner).transfer(balance) */\n      swap1\n      dup2\n      iszero\n      mul\n      swap1\n      mload(0x40)\n      0x00\n      mload(0x40)\n      dup1\n      dup4\n      sub\n      dup2\n      dup6\n      dup9\n      dup9\n      call\n      swap4\n      pop\n      pop\n      pop\n      pop\n      iszero\n      dup1\n      iszero\n      tag_74\n      jumpi\n      returndatasize\n      0x00\n      dup1\n      returndatacopy\n      revert(0x00, returndatasize)\n    tag_74:\n      pop\n        /* \"contracts/BeggingContract.sol\":2252:2257  owner */\n      dup1\n        /* \"contracts/BeggingContract.sol\":2243:2282  Withdraw(owner,balance,block.timestamp) */\n      0xffffffffffffffffffffffffffffffffffffffff\n      and\n      0xf279e6a1f5e320cca91135676d9cb6e44ca8a08c0b88342bcdb1144f6511b568\n        /* \"contracts/BeggingContract.sol\":2258:2265  balance */\n      dup4\n        /* \"contracts/BeggingContract.sol\":2266:2281  block.timestamp */\n      timestamp\n        /* \"contracts/BeggingContract.sol\":2243:2282  Withdraw(owner,balance,block.timestamp) */\n      mload(0x40)\n      tag_75\n      swap3\n      swap2\n      swap1\n      tag_76\n      jump\t// in\n    tag_75:\n      mload(0x40)\n      dup1\n      swap2\n      sub\n      swap1\n      log2\n        /* \"contracts/BeggingContract.sol\":1890:2289  {... */\n      pop\n      pop\n        /* \"contracts/BeggingContract.sol\":1851:2289  function withdraw() external onlyOwner {... */\n      jump\t// out\n        /* \"contracts/BeggingContract.sol\":2374:2483  function getDonation(address donor) external view returns (uint256) {... */\n    tag_22:\n        /* \"contracts/BeggingContract.sol\":2433:2440  uint256 */\n      0x00\n        /* \"contracts/BeggingContract.sol\":2459:2469  _donations */\n      0x03\n        /* \"contracts/BeggingContract.sol\":2459:2476  _donations[donor] */\n      0x00\n        /* \"contracts/BeggingContract.sol\":2470:2475  donor */\n      dup4\n        /* \"contracts/BeggingContract.sol\":2459:2476  _donations[donor] */\n      0xffffffffffffffffffffffffffffffffffffffff\n      and\n      0xffffffffffffffffffffffffffffffffffffffff\n      and\n      dup2\n      mstore\n      0x20\n      add\n      swap1\n      dup2\n      mstore\n      0x20\n      add\n      0x00\n      keccak256\n      sload\n        /* \"contracts/BeggingContract.sol\":2452:2476  return _donations[donor] */\n      swap1\n      pop\n        /* \"contracts/BeggingContract.sol\":2374:2483  function getDonation(address donor) external view returns (uint256) {... */\n      swap2\n      swap1\n      pop\n      jump\t// out\n        /* \"contracts/BeggingContract.sol\":2524:2631  function getContractBalance() external view returns (uint256) {... */\n    tag_27:\n        /* \"contracts/BeggingContract.sol\":2577:2584  uint256 */\n      0x00\n        /* \"contracts/BeggingContract.sol\":2603:2624  address(this).balance */\n      selfbalance\n        /* \"contracts/BeggingContract.sol\":2596:2624  return address(this).balance */\n      swap1\n      pop\n        /* \"contracts/BeggingContract.sol\":2524:2631  function getContractBalance() external view returns (uint256) {... */\n      swap1\n      jump\t// out\n        /* \"@openzeppelin/contracts/access/Ownable.sol\":2293:2394  function renounceOwnership() public virtual onlyOwner {... */\n    tag_31:\n        /* \"@openzeppelin/contracts/access/Ownable.sol\":1531:1544  _checkOwner() */\n      tag_80\n        /* \"@openzeppelin/contracts/access/Ownable.sol\":1531:1542  _checkOwner */\n      tag_67\n        /* \"@openzeppelin/contracts/access/Ownable.sol\":1531:1544  _checkOwner() */\n      jump\t// in\n    tag_80:\n        /* \"@openzeppelin/contracts/access/Ownable.sol\":2357:2387  _transferOwnership(address(0)) */\n      tag_82\n        /* \"@openzeppelin/contracts/access/Ownable.sol\":2384:2385  0 */\n      0x00\n        /* \"@openzeppelin/contracts/access/Ownable.sol\":2357:2375  _transferOwnership */\n      tag_83\n        /* \"@openzeppelin/contracts/access/Ownable.sol\":2357:2387  _transferOwnership(address(0)) */\n      jump\t// in\n    tag_82:\n        /* \"@openzeppelin/contracts/access/Ownable.sol\":2293:2394  function renounceOwnership() public virtual onlyOwner {... */\n      jump\t// out\n        /* \"@openzeppelin/contracts/access/Ownable.sol\":1638:1723  function owner() public view virtual returns (address) {... */\n    tag_34:\n        /* \"@openzeppelin/contracts/access/Ownable.sol\":1684:1691  address */\n      0x00\n        /* \"@openzeppelin/contracts/access/Ownable.sol\":1710:1716  _owner */\n      dup1\n      0x00\n      swap1\n      sload\n      swap1\n      0x0100\n      exp\n      swap1\n      div\n      0xffffffffffffffffffffffffffffffffffffffff\n      and\n        /* \"@openzeppelin/contracts/access/Ownable.sol\":1703:1716  return _owner */\n      swap1\n      pop\n        /* \"@openzeppelin/contracts/access/Ownable.sol\":1638:1723  function owner() public view virtual returns (address) {... */\n      swap1\n      jump\t// out\n        /* \"contracts/BeggingContract.sol\":2672:2765  function getDonors() external view returns (address[] memory) {... */\n    tag_39:\n        /* \"contracts/BeggingContract.sol\":2716:2732  address[] memory */\n      0x60\n        /* \"contracts/BeggingContract.sol\":2751:2758  _donors */\n      0x04\n        /* \"contracts/BeggingContract.sol\":2744:2758  return _donors */\n      dup1\n      sload\n      dup1\n      0x20\n      mul\n      0x20\n      add\n      mload(0x40)\n      swap1\n      dup2\n      add\n      0x40\n      mstore\n      dup1\n      swap3\n      swap2\n      swap1\n      dup2\n      dup2\n      mstore\n      0x20\n      add\n      dup3\n      dup1\n      sload\n      dup1\n      iszero\n      tag_86\n      jumpi\n      0x20\n      mul\n      dup3\n      add\n      swap2\n      swap1\n      0x00\n      mstore\n      keccak256(0x00, 0x20)\n      swap1\n    tag_87:\n      dup2\n      0x00\n      swap1\n      sload\n      swap1\n      0x0100\n      exp\n      swap1\n      div\n      0xffffffffffffffffffffffffffffffffffffffff\n      and\n      0xffffffffffffffffffffffffffffffffffffffff\n      and\n      dup2\n      mstore\n      0x20\n      add\n      swap1\n      0x01\n      add\n      swap1\n      dup1\n      dup4\n      gt\n      tag_87\n      jumpi\n    tag_86:\n      pop\n      pop\n      pop\n      pop\n      pop\n      swap1\n      pop\n        /* \"contracts/BeggingContract.sol\":2672:2765  function getDonors() external view returns (address[] memory) {... */\n      swap1\n      jump\t// out\n        /* \"contracts/BeggingContract.sol\":2863:4684  function getTopDonors() external view returns (address[] memory,uint256[] memory) {... */\n    tag_44:\n        /* \"contracts/BeggingContract.sol\":2910:2926  address[] memory */\n      0x60\n        /* \"contracts/BeggingContract.sol\":2927:2943  uint256[] memory */\n      dup1\n        /* \"contracts/BeggingContract.sol\":2955:2982  uint256[] memory topAmounts */\n      0x00\n        /* \"contracts/BeggingContract.sol\":2999:3000  3 */\n      0x03\n        /* \"contracts/BeggingContract.sol\":2985:3001  new uint256[](3) */\n      0xffffffffffffffff\n      dup2\n      gt\n      iszero\n      tag_89\n      jumpi\n      tag_90\n      tag_91\n      jump\t// in\n    tag_90:\n    tag_89:\n      mload(0x40)\n      swap1\n      dup1\n      dup3\n      mstore\n      dup1\n      0x20\n      mul\n      0x20\n      add\n      dup3\n      add\n      0x40\n      mstore\n      dup1\n      iszero\n      tag_92\n      jumpi\n      dup2\n      0x20\n      add\n      0x20\n      dup3\n      mul\n      dup1\n      calldatasize\n      dup4\n      calldatacopy\n      dup1\n      dup3\n      add\n      swap2\n      pop\n      pop\n      swap1\n      pop\n    tag_92:\n      pop\n        /* \"contracts/BeggingContract.sol\":2955:3001  uint256[] memory topAmounts = new uint256[](3) */\n      swap1\n      pop\n        /* \"contracts/BeggingContract.sol\":3011:3037  address[] memory topDonors */\n      0x00\n        /* \"contracts/BeggingContract.sol\":3054:3055  3 */\n      0x03\n        /* \"contracts/BeggingContract.sol\":3040:3056  new address[](3) */\n      0xffffffffffffffff\n      dup2\n      gt\n      iszero\n      tag_93\n      jumpi\n      tag_94\n      tag_91\n      jump\t// in\n    tag_94:\n    tag_93:\n      mload(0x40)\n      swap1\n      dup1\n      dup3\n      mstore\n      dup1\n      0x20\n      mul\n      0x20\n      add\n      dup3\n      add\n      0x40\n      mstore\n      dup1\n      iszero\n      tag_95\n      jumpi\n      dup2\n      0x20\n      add\n      0x20\n      dup3\n      mul\n      dup1\n      calldatasize\n      dup4\n      calldatacopy\n      dup1\n      dup3\n      add\n      swap2\n      pop\n      pop\n      swap1\n      pop\n    tag_95:\n      pop\n        /* \"contracts/BeggingContract.sol\":3011:3056  address[] memory topDonors = new address[](3) */\n      swap1\n      pop\n        /* \"contracts/BeggingContract.sol\":3108:3117  uint256 i */\n      0x00\n        /* \"contracts/BeggingContract.sol\":3103:4638  for (uint256 i = 0; i < _donors.length; i++) {... */\n    tag_96:\n        /* \"contracts/BeggingContract.sol\":3127:3134  _donors */\n      0x04\n        /* \"contracts/BeggingContract.sol\":3127:3141  _donors.length */\n      dup1\n      sload\n      swap1\n      pop\n        /* \"contracts/BeggingContract.sol\":3123:3124  i */\n      dup2\n        /* \"contracts/BeggingContract.sol\":3123:3141  i < _donors.length */\n      lt\n        /* \"contracts/BeggingContract.sol\":3103:4638  for (uint256 i = 0; i < _donors.length; i++) {... */\n      iszero\n      tag_97\n      jumpi\n        /* \"contracts/BeggingContract.sol\":3162:3175  address donor */\n      0x00\n        /* \"contracts/BeggingContract.sol\":3178:3185  _donors */\n      0x04\n        /* \"contracts/BeggingContract.sol\":3186:3187  i */\n      dup3\n        /* \"contracts/BeggingContract.sol\":3178:3188  _donors[i] */\n      dup2\n      sload\n      dup2\n      lt\n      tag_99\n      jumpi\n      tag_100\n      tag_101\n      jump\t// in\n    tag_100:\n    tag_99:\n      swap1\n      0x00\n      mstore\n      keccak256(0x00, 0x20)\n      add\n      0x00\n      swap1\n      sload\n      swap1\n      0x0100\n      exp\n      swap1\n      div\n      0xffffffffffffffffffffffffffffffffffffffff\n      and\n        /* \"contracts/BeggingContract.sol\":3162:3188  address donor = _donors[i] */\n      swap1\n      pop\n        /* \"contracts/BeggingContract.sol\":3202:3216  uint256 amount */\n      0x00\n        /* \"contracts/BeggingContract.sol\":3219:3229  _donations */\n      0x03\n        /* \"contracts/BeggingContract.sol\":3219:3236  _donations[donor] */\n      0x00\n        /* \"contracts/BeggingContract.sol\":3230:3235  donor */\n      dup4\n        /* \"contracts/BeggingContract.sol\":3219:3236  _donations[donor] */\n      0xffffffffffffffffffffffffffffffffffffffff\n      and\n      0xffffffffffffffffffffffffffffffffffffffff\n      and\n      dup2\n      mstore\n      0x20\n      add\n      swap1\n      dup2\n      mstore\n      0x20\n      add\n      0x00\n      keccak256\n      sload\n        /* \"contracts/BeggingContract.sol\":3202:3236  uint256 amount = _donations[donor] */\n      swap1\n      pop\n        /* \"contracts/BeggingContract.sol\":3363:3373  topAmounts */\n      dup5\n        /* \"contracts/BeggingContract.sol\":3374:3375  2 */\n      0x02\n        /* \"contracts/BeggingContract.sol\":3363:3376  topAmounts[2] */\n      dup2\n      mload\n      dup2\n      lt\n      tag_103\n      jumpi\n      tag_104\n      tag_101\n      jump\t// in\n    tag_104:\n    tag_103:\n      0x20\n      mul\n      0x20\n      add\n      add\n      mload\n        /* \"contracts/BeggingContract.sol\":3354:3360  amount */\n      dup2\n        /* \"contracts/BeggingContract.sol\":3354:3376  amount > topAmounts[2] */\n      gt\n        /* \"contracts/BeggingContract.sol\":3350:4627  if (amount > topAmounts[2]) {... */\n      iszero\n      tag_105\n      jumpi\n        /* \"contracts/BeggingContract.sol\":3512:3522  topAmounts */\n      dup5\n        /* \"contracts/BeggingContract.sol\":3523:3524  0 */\n      0x00\n        /* \"contracts/BeggingContract.sol\":3512:3525  topAmounts[0] */\n      dup2\n      mload\n      dup2\n      lt\n      tag_106\n      jumpi\n      tag_107\n      tag_101\n      jump\t// in\n    tag_107:\n    tag_106:\n      0x20\n      mul\n      0x20\n      add\n      add\n      mload\n        /* \"contracts/BeggingContract.sol\":3503:3509  amount */\n      dup2\n        /* \"contracts/BeggingContract.sol\":3503:3525  amount > topAmounts[0] */\n      gt\n        /* \"contracts/BeggingContract.sol\":3499:4613  if (amount > topAmounts[0]) {... */\n      iszero\n      tag_108\n      jumpi\n        /* \"contracts/BeggingContract.sol\":3613:3623  topAmounts */\n      dup5\n        /* \"contracts/BeggingContract.sol\":3624:3625  1 */\n      0x01\n        /* \"contracts/BeggingContract.sol\":3613:3626  topAmounts[1] */\n      dup2\n      mload\n      dup2\n      lt\n      tag_109\n      jumpi\n      tag_110\n      tag_101\n      jump\t// in\n    tag_110:\n    tag_109:\n      0x20\n      mul\n      0x20\n      add\n      add\n      mload\n        /* \"contracts/BeggingContract.sol\":3597:3607  topAmounts */\n      dup6\n        /* \"contracts/BeggingContract.sol\":3608:3609  2 */\n      0x02\n        /* \"contracts/BeggingContract.sol\":3597:3610  topAmounts[2] */\n      dup2\n      mload\n      dup2\n      lt\n      tag_111\n      jumpi\n      tag_112\n      tag_101\n      jump\t// in\n    tag_112:\n    tag_111:\n      0x20\n      mul\n      0x20\n      add\n      add\n        /* \"contracts/BeggingContract.sol\":3597:3626  topAmounts[2] = topAmounts[1] */\n      dup2\n      dup2\n      mstore\n      pop\n      pop\n        /* \"contracts/BeggingContract.sol\":3663:3672  topDonors */\n      dup4\n        /* \"contracts/BeggingContract.sol\":3673:3674  1 */\n      0x01\n        /* \"contracts/BeggingContract.sol\":3663:3675  topDonors[1] */\n      dup2\n      mload\n      dup2\n      lt\n      tag_113\n      jumpi\n      tag_114\n      tag_101\n      jump\t// in\n    tag_114:\n    tag_113:\n      0x20\n      mul\n      0x20\n      add\n      add\n      mload\n        /* \"contracts/BeggingContract.sol\":3648:3657  topDonors */\n      dup5\n        /* \"contracts/BeggingContract.sol\":3658:3659  2 */\n      0x02\n        /* \"contracts/BeggingContract.sol\":3648:3660  topDonors[2] */\n      dup2\n      mload\n      dup2\n      lt\n      tag_115\n      jumpi\n      tag_116\n      tag_101\n      jump\t// in\n    tag_116:\n    tag_115:\n      0x20\n      mul\n      0x20\n      add\n      add\n        /* \"contracts/BeggingContract.sol\":3648:3675  topDonors[2] = topDonors[1] */\n      swap1\n      0xffffffffffffffffffffffffffffffffffffffff\n      and\n      swap1\n      dup2\n      0xffffffffffffffffffffffffffffffffffffffff\n      and\n      dup2\n      mstore\n      pop\n      pop\n        /* \"contracts/BeggingContract.sol\":3761:3771  topAmounts */\n      dup5\n        /* \"contracts/BeggingContract.sol\":3772:3773  0 */\n      0x00\n        /* \"contracts/BeggingContract.sol\":3761:3774  topAmounts[0] */\n      dup2\n      mload\n      dup2\n      lt\n      tag_117\n      jumpi\n      tag_118\n      tag_101\n      jump\t// in\n    tag_118:\n    tag_117:\n      0x20\n      mul\n      0x20\n      add\n      add\n      mload\n        /* \"contracts/BeggingContract.sol\":3745:3755  topAmounts */\n      dup6\n        /* \"contracts/BeggingContract.sol\":3756:3757  1 */\n      0x01\n        /* \"contracts/BeggingContract.sol\":3745:3758  topAmounts[1] */\n      dup2\n      mload\n      dup2\n      lt\n      tag_119\n      jumpi\n      tag_120\n      tag_101\n      jump\t// in\n    tag_120:\n    tag_119:\n      0x20\n      mul\n      0x20\n      add\n      add\n        /* \"contracts/BeggingContract.sol\":3745:3774  topAmounts[1] = topAmounts[0] */\n      dup2\n      dup2\n      mstore\n      pop\n      pop\n        /* \"contracts/BeggingContract.sol\":3811:3820  topDonors */\n      dup4\n        /* \"contracts/BeggingContract.sol\":3821:3822  0 */\n      0x00\n        /* \"contracts/BeggingContract.sol\":3811:3823  topDonors[0] */\n      dup2\n      mload\n      dup2\n      lt\n      tag_121\n      jumpi\n      tag_122\n      tag_101\n      jump\t// in\n    tag_122:\n    tag_121:\n      0x20\n      mul\n      0x20\n      add\n      add\n      mload\n        /* \"contracts/BeggingContract.sol\":3796:3805  topDonors */\n      dup5\n        /* \"contracts/BeggingContract.sol\":3806:3807  1 */\n      0x01\n        /* \"contracts/BeggingContract.sol\":3796:3808  topDonors[1] */\n      dup2\n      mload\n      dup2\n      lt\n      tag_123\n      jumpi\n      tag_124\n      tag_101\n      jump\t// in\n    tag_124:\n    tag_123:\n      0x20\n      mul\n      0x20\n      add\n      add\n        /* \"contracts/BeggingContract.sol\":3796:3823  topDonors[1] = topDonors[0] */\n      swap1\n      0xffffffffffffffffffffffffffffffffffffffff\n      and\n      swap1\n      dup2\n      0xffffffffffffffffffffffffffffffffffffffff\n      and\n      dup2\n      mstore\n      pop\n      pop\n        /* \"contracts/BeggingContract.sol\":3900:3906  amount */\n      dup1\n        /* \"contracts/BeggingContract.sol\":3884:3894  topAmounts */\n      dup6\n        /* \"contracts/BeggingContract.sol\":3895:3896  0 */\n      0x00\n        /* \"contracts/BeggingContract.sol\":3884:3897  topAmounts[0] */\n      dup2\n      mload\n      dup2\n      lt\n      tag_125\n      jumpi\n      tag_126\n      tag_101\n      jump\t// in\n    tag_126:\n    tag_125:\n      0x20\n      mul\n      0x20\n      add\n      add\n        /* \"contracts/BeggingContract.sol\":3884:3906  topAmounts[0] = amount */\n      dup2\n      dup2\n      mstore\n      pop\n      pop\n        /* \"contracts/BeggingContract.sol\":3943:3948  donor */\n      dup2\n        /* \"contracts/BeggingContract.sol\":3928:3937  topDonors */\n      dup5\n        /* \"contracts/BeggingContract.sol\":3938:3939  0 */\n      0x00\n        /* \"contracts/BeggingContract.sol\":3928:3940  topDonors[0] */\n      dup2\n      mload\n      dup2\n      lt\n      tag_127\n      jumpi\n      tag_128\n      tag_101\n      jump\t// in\n    tag_128:\n    tag_127:\n      0x20\n      mul\n      0x20\n      add\n      add\n        /* \"contracts/BeggingContract.sol\":3928:3948  topDonors[0] = donor */\n      swap1\n      0xffffffffffffffffffffffffffffffffffffffff\n      and\n      swap1\n      dup2\n      0xffffffffffffffffffffffffffffffffffffffff\n      and\n      dup2\n      mstore\n      pop\n      pop\n        /* \"contracts/BeggingContract.sol\":3499:4613  if (amount > topAmounts[0]) {... */\n      jump(tag_129)\n    tag_108:\n        /* \"contracts/BeggingContract.sol\":4101:4111  topAmounts */\n      dup5\n        /* \"contracts/BeggingContract.sol\":4112:4113  1 */\n      0x01\n        /* \"contracts/BeggingContract.sol\":4101:4114  topAmounts[1] */\n      dup2\n      mload\n      dup2\n      lt\n      tag_130\n      jumpi\n      tag_131\n      tag_101\n      jump\t// in\n    tag_131:\n    tag_130:\n      0x20\n      mul\n      0x20\n      add\n      add\n      mload\n        /* \"contracts/BeggingContract.sol\":4092:4098  amount */\n      dup2\n        /* \"contracts/BeggingContract.sol\":4092:4114  amount > topAmounts[1] */\n      gt\n        /* \"contracts/BeggingContract.sol\":4088:4613  if (amount > topAmounts[1]) {... */\n      iszero\n      tag_132\n      jumpi\n        /* \"contracts/BeggingContract.sol\":4202:4212  topAmounts */\n      dup5\n        /* \"contracts/BeggingContract.sol\":4213:4214  1 */\n      0x01\n        /* \"contracts/BeggingContract.sol\":4202:4215  topAmounts[1] */\n      dup2\n      mload\n      dup2\n      lt\n      tag_133\n      jumpi\n      tag_134\n      tag_101\n      jump\t// in\n    tag_134:\n    tag_133:\n      0x20\n      mul\n      0x20\n      add\n      add\n      mload\n        /* \"contracts/BeggingContract.sol\":4186:4196  topAmounts */\n      dup6\n        /* \"contracts/BeggingContract.sol\":4197:4198  2 */\n      0x02\n        /* \"contracts/BeggingContract.sol\":4186:4199  topAmounts[2] */\n      dup2\n      mload\n      dup2\n      lt\n      tag_135\n      jumpi\n      tag_136\n      tag_101\n      jump\t// in\n    tag_136:\n    tag_135:\n      0x20\n      mul\n      0x20\n      add\n      add\n        /* \"contracts/BeggingContract.sol\":4186:4215  topAmounts[2] = topAmounts[1] */\n      dup2\n      dup2\n      mstore\n      pop\n      pop\n        /* \"contracts/BeggingContract.sol\":4252:4261  topDonors */\n      dup4\n        /* \"contracts/BeggingContract.sol\":4262:4263  1 */\n      0x01\n        /* \"contracts/BeggingContract.sol\":4252:4264  topDonors[1] */\n      dup2\n      mload\n      dup2\n      lt\n      tag_137\n      jumpi\n      tag_138\n      tag_101\n      jump\t// in\n    tag_138:\n    tag_137:\n      0x20\n      mul\n      0x20\n      add\n      add\n      mload\n        /* \"contracts/BeggingContract.sol\":4237:4246  topDonors */\n      dup5\n        /* \"contracts/BeggingContract.sol\":4247:4248  2 */\n      0x02\n        /* \"contracts/BeggingContract.sol\":4237:4249  topDonors[2] */\n      dup2\n      mload\n      dup2\n      lt\n      tag_139\n      jumpi\n      tag_140\n      tag_101\n      jump\t// in\n    tag_140:\n    tag_139:\n      0x20\n      mul\n      0x20\n      add\n      add\n        /* \"contracts/BeggingContract.sol\":4237:4264  topDonors[2] = topDonors[1] */\n      swap1\n      0xffffffffffffffffffffffffffffffffffffffff\n      and\n      swap1\n      dup2\n      0xffffffffffffffffffffffffffffffffffffffff\n      and\n      dup2\n      mstore\n      pop\n      pop\n        /* \"contracts/BeggingContract.sol\":4341:4347  amount */\n      dup1\n        /* \"contracts/BeggingContract.sol\":4325:4335  topAmounts */\n      dup6\n        /* \"contracts/BeggingContract.sol\":4336:4337  1 */\n      0x01\n        /* \"contracts/BeggingContract.sol\":4325:4338  topAmounts[1] */\n      dup2\n      mload\n      dup2\n      lt\n      tag_141\n      jumpi\n      tag_142\n      tag_101\n      jump\t// in\n    tag_142:\n    tag_141:\n      0x20\n      mul\n      0x20\n      add\n      add\n        /* \"contracts/BeggingContract.sol\":4325:4347  topAmounts[1] = amount */\n      dup2\n      dup2\n      mstore\n      pop\n      pop\n        /* \"contracts/BeggingContract.sol\":4384:4389  donor */\n      dup2\n        /* \"contracts/BeggingContract.sol\":4369:4378  topDonors */\n      dup5\n        /* \"contracts/BeggingContract.sol\":4379:4380  1 */\n      0x01\n        /* \"contracts/BeggingContract.sol\":4369:4381  topDonors[1] */\n      dup2\n      mload\n      dup2\n      lt\n      tag_143\n      jumpi\n      tag_144\n      tag_101\n      jump\t// in\n    tag_144:\n    tag_143:\n      0x20\n      mul\n      0x20\n      add\n      add\n        /* \"contracts/BeggingContract.sol\":4369:4389  topDonors[1] = donor */\n      swap1\n      0xffffffffffffffffffffffffffffffffffffffff\n      and\n      swap1\n      dup2\n      0xffffffffffffffffffffffffffffffffffffffff\n      and\n      dup2\n      mstore\n      pop\n      pop\n        /* \"contracts/BeggingContract.sol\":4088:4613  if (amount > topAmounts[1]) {... */\n      jump(tag_145)\n    tag_132:\n        /* \"contracts/BeggingContract.sol\":4546:4552  amount */\n      dup1\n        /* \"contracts/BeggingContract.sol\":4530:4540  topAmounts */\n      dup6\n        /* \"contracts/BeggingContract.sol\":4541:4542  2 */\n      0x02\n        /* \"contracts/BeggingContract.sol\":4530:4543  topAmounts[2] */\n      dup2\n      mload\n      dup2\n      lt\n      tag_146\n      jumpi\n      tag_147\n      tag_101\n      jump\t// in\n    tag_147:\n    tag_146:\n      0x20\n      mul\n      0x20\n      add\n      add\n        /* \"contracts/BeggingContract.sol\":4530:4552  topAmounts[2] = amount */\n      dup2\n      dup2\n      mstore\n      pop\n      pop\n        /* \"contracts/BeggingContract.sol\":4589:4594  donor */\n      dup2\n        /* \"contracts/BeggingContract.sol\":4574:4583  topDonors */\n      dup5\n        /* \"contracts/BeggingContract.sol\":4584:4585  2 */\n      0x02\n        /* \"contracts/BeggingContract.sol\":4574:4586  topDonors[2] */\n      dup2\n      mload\n      dup2\n      lt\n      tag_148\n      jumpi\n      tag_149\n      tag_101\n      jump\t// in\n    tag_149:\n    tag_148:\n      0x20\n      mul\n      0x20\n      add\n      add\n        /* \"contracts/BeggingContract.sol\":4574:4594  topDonors[2] = donor */\n      swap1\n      0xffffffffffffffffffffffffffffffffffffffff\n      and\n      swap1\n      dup2\n      0xffffffffffffffffffffffffffffffffffffffff\n      and\n      dup2\n      mstore\n      pop\n      pop\n        /* \"contracts/BeggingContract.sol\":4088:4613  if (amount > topAmounts[1]) {... */\n    tag_145:\n        /* \"contracts/BeggingContract.sol\":3499:4613  if (amount > topAmounts[0]) {... */\n    tag_129:\n        /* \"contracts/BeggingContract.sol\":3350:4627  if (amount > topAmounts[2]) {... */\n    tag_105:\n        /* \"contracts/BeggingContract.sol\":3148:4638  {... */\n      pop\n      pop\n        /* \"contracts/BeggingContract.sol\":3143:3146  i++ */\n      dup1\n      dup1\n      0x01\n      add\n      swap2\n      pop\n      pop\n        /* \"contracts/BeggingContract.sol\":3103:4638  for (uint256 i = 0; i < _donors.length; i++) {... */\n      jump(tag_96)\n    tag_97:\n      pop\n        /* \"contracts/BeggingContract.sol\":4656:4665  topDonors */\n      dup1\n        /* \"contracts/BeggingContract.sol\":4666:4676  topAmounts */\n      dup3\n        /* \"contracts/BeggingContract.sol\":4648:4677  return (topDonors,topAmounts) */\n      swap4\n      pop\n      swap4\n      pop\n      pop\n      pop\n        /* \"contracts/BeggingContract.sol\":2863:4684  function getTopDonors() external view returns (address[] memory,uint256[] memory) {... */\n      swap1\n      swap2\n      jump\t// out\n        /* \"contracts/BeggingContract.sol\":277:314  uint256 public donationStartTimestamp */\n    tag_49:\n      sload(0x01)\n      dup2\n      jump\t// out\n        /* \"contracts/BeggingContract.sol\":320:355  uint256 public donationEndTimestamp */\n    tag_53:\n      sload(0x02)\n      dup2\n      jump\t// out\n        /* \"contracts/BeggingContract.sol\":1283:1770  function donate() external payable{... */\n    tag_56:\n        /* \"contracts/BeggingContract.sol\":1354:1376  donationStartTimestamp */\n      sload(0x01)\n        /* \"contracts/BeggingContract.sol\":1335:1350  block.timestamp */\n      timestamp\n        /* \"contracts/BeggingContract.sol\":1335:1376  block.timestamp >= donationStartTimestamp */\n      lt\n      iszero\n        /* \"contracts/BeggingContract.sol\":1327:1403  require(block.timestamp >= donationStartTimestamp, unicode\"捐赠未开始\") */\n      tag_151\n      jumpi\n      mload(0x40)\n      0x08c379a000000000000000000000000000000000000000000000000000000000\n      dup2\n      mstore\n      0x04\n      add\n      tag_152\n      swap1\n      tag_153\n      jump\t// in\n    tag_152:\n      mload(0x40)\n      dup1\n      swap2\n      sub\n      swap1\n      revert\n    tag_151:\n        /* \"contracts/BeggingContract.sol\":1440:1460  donationEndTimestamp */\n      sload(0x02)\n        /* \"contracts/BeggingContract.sol\":1421:1436  block.timestamp */\n      timestamp\n        /* \"contracts/BeggingContract.sol\":1421:1460  block.timestamp <= donationEndTimestamp */\n      gt\n      iszero\n        /* \"contracts/BeggingContract.sol\":1413:1487  require(block.timestamp <= donationEndTimestamp, unicode\"捐赠已结束\") */\n      tag_154\n      jumpi\n      mload(0x40)\n      0x08c379a000000000000000000000000000000000000000000000000000000000\n      dup2\n      mstore\n      0x04\n      add\n      tag_155\n      swap1\n      tag_156\n      jump\t// in\n    tag_155:\n      mload(0x40)\n      dup1\n      swap2\n      sub\n      swap1\n      revert\n    tag_154:\n        /* \"contracts/BeggingContract.sol\":1517:1518  0 */\n      0x00\n        /* \"contracts/BeggingContract.sol\":1505:1514  msg.value */\n      callvalue\n        /* \"contracts/BeggingContract.sol\":1505:1518  msg.value > 0 */\n      gt\n        /* \"contracts/BeggingContract.sol\":1497:1559  require(msg.value > 0 , unicode\"捐赠金额必须大于0！\") */\n      tag_157\n      jumpi\n      mload(0x40)\n      0x08c379a000000000000000000000000000000000000000000000000000000000\n      dup2\n      mstore\n      0x04\n      add\n      tag_158\n      swap1\n      tag_159\n      jump\t// in\n    tag_158:\n      mload(0x40)\n      dup1\n      swap2\n      sub\n      swap1\n      revert\n    tag_157:\n        /* \"contracts/BeggingContract.sol\":1600:1601  0 */\n      0x00\n        /* \"contracts/BeggingContract.sol\":1574:1584  _donations */\n      0x03\n        /* \"contracts/BeggingContract.sol\":1574:1596  _donations[msg.sender] */\n      0x00\n        /* \"contracts/BeggingContract.sol\":1585:1595  msg.sender */\n      caller\n        /* \"contracts/BeggingContract.sol\":1574:1596  _donations[msg.sender] */\n      0xffffffffffffffffffffffffffffffffffffffff\n      and\n      0xffffffffffffffffffffffffffffffffffffffff\n      and\n      dup2\n      mstore\n      0x20\n      add\n      swap1\n      dup2\n      mstore\n      0x20\n      add\n      0x00\n      keccak256\n      sload\n        /* \"contracts/BeggingContract.sol\":1574:1601  _donations[msg.sender] == 0 */\n      sub\n        /* \"contracts/BeggingContract.sol\":1570:1651  if (_donations[msg.sender] == 0){... */\n      tag_160\n      jumpi\n        /* \"contracts/BeggingContract.sol\":1616:1623  _donors */\n      0x04\n        /* \"contracts/BeggingContract.sol\":1629:1639  msg.sender */\n      caller\n        /* \"contracts/BeggingContract.sol\":1616:1640  _donors.push(msg.sender) */\n      swap1\n      dup1\n      0x01\n      dup2\n      sload\n      add\n      dup1\n      dup3\n      sstore\n      dup1\n      swap2\n      pop\n      pop\n      0x01\n      swap1\n      sub\n      swap1\n      0x00\n      mstore\n      keccak256(0x00, 0x20)\n      add\n      0x00\n      swap1\n      swap2\n      swap1\n      swap2\n      swap1\n      swap2\n      0x0100\n      exp\n      dup2\n      sload\n      dup2\n      0xffffffffffffffffffffffffffffffffffffffff\n      mul\n      not\n      and\n      swap1\n      dup4\n      0xffffffffffffffffffffffffffffffffffffffff\n      and\n      mul\n      or\n      swap1\n      sstore\n      pop\n        /* \"contracts/BeggingContract.sol\":1570:1651  if (_donations[msg.sender] == 0){... */\n    tag_160:\n        /* \"contracts/BeggingContract.sol\":1687:1696  msg.value */\n      callvalue\n        /* \"contracts/BeggingContract.sol\":1661:1671  _donations */\n      0x03\n        /* \"contracts/BeggingContract.sol\":1661:1683  _donations[msg.sender] */\n      0x00\n        /* \"contracts/BeggingContract.sol\":1672:1682  msg.sender */\n      caller\n        /* \"contracts/BeggingContract.sol\":1661:1683  _donations[msg.sender] */\n      0xffffffffffffffffffffffffffffffffffffffff\n      and\n      0xffffffffffffffffffffffffffffffffffffffff\n      and\n      dup2\n      mstore\n      0x20\n      add\n      swap1\n      dup2\n      mstore\n      0x20\n      add\n      0x00\n      keccak256\n      0x00\n        /* \"contracts/BeggingContract.sol\":1661:1696  _donations[msg.sender] += msg.value */\n      dup3\n      dup3\n      sload\n      tag_162\n      swap2\n      swap1\n      tag_163\n      jump\t// in\n    tag_162:\n      swap3\n      pop\n      pop\n      dup2\n      swap1\n      sstore\n      pop\n        /* \"contracts/BeggingContract.sol\":1726:1736  msg.sender */\n      caller\n        /* \"contracts/BeggingContract.sol\":1717:1763  Donation(msg.sender,msg.value,block.timestamp) */\n      0xffffffffffffffffffffffffffffffffffffffff\n      and\n      0x106aac375bbcf013d1e52338bbf9e740009a1a3a6869f8daa1b72aa1620f5fec\n        /* \"contracts/BeggingContract.sol\":1737:1746  msg.value */\n      callvalue\n        /* \"contracts/BeggingContract.sol\":1747:1762  block.timestamp */\n      timestamp\n        /* \"contracts/BeggingContract.sol\":1717:1763  Donation(msg.sender,msg.value,block.timestamp) */\n      mload(0x40)\n      tag_164\n      swap3\n      swap2\n      swap1\n      tag_76\n      jump\t// in\n    tag_164:\n      mload(0x40)\n      dup1\n      swap2\n      sub\n      swap1\n      log2\n        /* \"contracts/BeggingContract.sol\":1283:1770  function donate() external payable{... */\n      jump\t// out\n        /* \"contracts/BeggingContract.sol\":4726:4910  function getRemainingTime() external view returns (uint256) {... */\n    tag_59:\n        /* \"contracts/BeggingContract.sol\":4777:4784  uint256 */\n      0x00\n        /* \"contracts/BeggingContract.sol\":4818:4838  donationEndTimestamp */\n      sload(0x02)\n        /* \"contracts/BeggingContract.sol\":4800:4815  block.timestamp */\n      timestamp\n        /* \"contracts/BeggingContract.sol\":4800:4838  block.timestamp > donationEndTimestamp */\n      gt\n        /* \"contracts/BeggingContract.sol\":4796:4848  if (block.timestamp > donationEndTimestamp) return 0 */\n      iszero\n      tag_166\n      jumpi\n        /* \"contracts/BeggingContract.sol\":4847:4848  0 */\n      0x00\n        /* \"contracts/BeggingContract.sol\":4840:4848  return 0 */\n      swap1\n      pop\n      jump(tag_165)\n        /* \"contracts/BeggingContract.sol\":4796:4848  if (block.timestamp > donationEndTimestamp) return 0 */\n    tag_166:\n        /* \"contracts/BeggingContract.sol\":4888:4903  block.timestamp */\n      timestamp\n        /* \"contracts/BeggingContract.sol\":4865:4885  donationEndTimestamp */\n      sload(0x02)\n        /* \"contracts/BeggingContract.sol\":4865:4903  donationEndTimestamp - block.timestamp */\n      tag_167\n      swap2\n      swap1\n      tag_168\n      jump\t// in\n    tag_167:\n        /* \"contracts/BeggingContract.sol\":4858:4903  return donationEndTimestamp - block.timestamp */\n      swap1\n      pop\n        /* \"contracts/BeggingContract.sol\":4726:4910  function getRemainingTime() external view returns (uint256) {... */\n    tag_165:\n      swap1\n      jump\t// out\n        /* \"@openzeppelin/contracts/access/Ownable.sol\":2543:2758  function transferOwnership(address newOwner) public virtual onlyOwner {... */\n    tag_64:\n        /* \"@openzeppelin/contracts/access/Ownable.sol\":1531:1544  _checkOwner() */\n      tag_170\n        /* \"@openzeppelin/contracts/access/Ownable.sol\":1531:1542  _checkOwner */\n      tag_67\n        /* \"@openzeppelin/contracts/access/Ownable.sol\":1531:1544  _checkOwner() */\n      jump\t// in\n    tag_170:\n        /* \"@openzeppelin/contracts/access/Ownable.sol\":2647:2648  0 */\n      0x00\n        /* \"@openzeppelin/contracts/access/Ownable.sol\":2627:2649  newOwner == address(0) */\n      0xffffffffffffffffffffffffffffffffffffffff\n      and\n        /* \"@openzeppelin/contracts/access/Ownable.sol\":2627:2635  newOwner */\n      dup2\n        /* \"@openzeppelin/contracts/access/Ownable.sol\":2627:2649  newOwner == address(0) */\n      0xffffffffffffffffffffffffffffffffffffffff\n      and\n      sub\n        /* \"@openzeppelin/contracts/access/Ownable.sol\":2623:2714  if (newOwner == address(0)) {... */\n      tag_172\n      jumpi\n        /* \"@openzeppelin/contracts/access/Ownable.sol\":2700:2701  0 */\n      0x00\n        /* \"@openzeppelin/contracts/access/Ownable.sol\":2672:2703  OwnableInvalidOwner(address(0)) */\n      mload(0x40)\n      0x1e4fbdf700000000000000000000000000000000000000000000000000000000\n      dup2\n      mstore\n      0x04\n      add\n      tag_173\n      swap2\n      swap1\n      tag_36\n      jump\t// in\n    tag_173:\n      mload(0x40)\n      dup1\n      swap2\n      sub\n      swap1\n      revert\n        /* \"@openzeppelin/contracts/access/Ownable.sol\":2623:2714  if (newOwner == address(0)) {... */\n    tag_172:\n        /* \"@openzeppelin/contracts/access/Ownable.sol\":2723:2751  _transferOwnership(newOwner) */\n      tag_174\n        /* \"@openzeppelin/contracts/access/Ownable.sol\":2742:2750  newOwner */\n      dup2\n        /* \"@openzeppelin/contracts/access/Ownable.sol\":2723:2741  _transferOwnership */\n      tag_83\n        /* \"@openzeppelin/contracts/access/Ownable.sol\":2723:2751  _transferOwnership(newOwner) */\n      jump\t// in\n    tag_174:\n        /* \"@openzeppelin/contracts/access/Ownable.sol\":2543:2758  function transferOwnership(address newOwner) public virtual onlyOwner {... */\n      pop\n      jump\t// out\n        /* \"@openzeppelin/contracts/access/Ownable.sol\":1796:1958  function _checkOwner() internal view virtual {... */\n    tag_67:\n        /* \"@openzeppelin/contracts/access/Ownable.sol\":1866:1878  _msgSender() */\n      tag_176\n        /* \"@openzeppelin/contracts/access/Ownable.sol\":1866:1876  _msgSender */\n      tag_177\n        /* \"@openzeppelin/contracts/access/Ownable.sol\":1866:1878  _msgSender() */\n      jump\t// in\n    tag_176:\n        /* \"@openzeppelin/contracts/access/Ownable.sol\":1855:1878  owner() != _msgSender() */\n      0xffffffffffffffffffffffffffffffffffffffff\n      and\n        /* \"@openzeppelin/contracts/access/Ownable.sol\":1855:1862  owner() */\n      tag_178\n        /* \"@openzeppelin/contracts/access/Ownable.sol\":1855:1860  owner */\n      tag_34\n        /* \"@openzeppelin/contracts/access/Ownable.sol\":1855:1862  owner() */\n      jump\t// in\n    tag_178:\n        /* \"@openzeppelin/contracts/access/Ownable.sol\":1855:1878  owner() != _msgSender() */\n      0xffffffffffffffffffffffffffffffffffffffff\n      and\n      eq\n        /* \"@openzeppelin/contracts/access/Ownable.sol\":1851:1952  if (owner() != _msgSender()) {... */\n      tag_179\n      jumpi\n        /* \"@openzeppelin/contracts/access/Ownable.sol\":1928:1940  _msgSender() */\n      tag_180\n        /* \"@openzeppelin/contracts/access/Ownable.sol\":1928:1938  _msgSender */\n      tag_177\n        /* \"@openzeppelin/contracts/access/Ownable.sol\":1928:1940  _msgSender() */\n      jump\t// in\n    tag_180:\n        /* \"@openzeppelin/contracts/access/Ownable.sol\":1901:1941  OwnableUnauthorizedAccount(_msgSender()) */\n      mload(0x40)\n      0x118cdaa700000000000000000000000000000000000000000000000000000000\n      dup2\n      mstore\n      0x04\n      add\n      tag_181\n      swap2\n      swap1\n      tag_36\n      jump\t// in\n    tag_181:\n      mload(0x40)\n      dup1\n      swap2\n      sub\n      swap1\n      revert\n        /* \"@openzeppelin/contracts/access/Ownable.sol\":1851:1952  if (owner() != _msgSender()) {... */\n    tag_179:\n        /* \"@openzeppelin/contracts/access/Ownable.sol\":1796:1958  function _checkOwner() internal view virtual {... */\n      jump\t// out\n        /* \"@openzeppelin/contracts/access/Ownable.sol\":2912:3099  function _transferOwnership(address newOwner) internal virtual {... */\n    tag_83:\n        /* \"@openzeppelin/contracts/access/Ownable.sol\":2985:3001  address oldOwner */\n      0x00\n        /* \"@openzeppelin/contracts/access/Ownable.sol\":3004:3010  _owner */\n      dup1\n      0x00\n      swap1\n      sload\n      swap1\n      0x0100\n      exp\n      swap1\n      div\n      0xffffffffffffffffffffffffffffffffffffffff\n      and\n        /* \"@openzeppelin/contracts/access/Ownable.sol\":2985:3010  address oldOwner = _owner */\n      swap1\n      pop\n        /* \"@openzeppelin/contracts/access/Ownable.sol\":3029:3037  newOwner */\n      dup2\n        /* \"@openzeppelin/contracts/access/Ownable.sol\":3020:3026  _owner */\n      0x00\n      dup1\n        /* \"@openzeppelin/contracts/access/Ownable.sol\":3020:3037  _owner = newOwner */\n      0x0100\n      exp\n      dup2\n      sload\n      dup2\n      0xffffffffffffffffffffffffffffffffffffffff\n      mul\n      not\n      and\n      swap1\n      dup4\n      0xffffffffffffffffffffffffffffffffffffffff\n      and\n      mul\n      or\n      swap1\n      sstore\n      pop\n        /* \"@openzeppelin/contracts/access/Ownable.sol\":3083:3091  newOwner */\n      dup2\n        /* \"@openzeppelin/contracts/access/Ownable.sol\":3052:3092  OwnershipTransferred(oldOwner, newOwner) */\n      0xffffffffffffffffffffffffffffffffffffffff\n      and\n        /* \"@openzeppelin/contracts/access/Ownable.sol\":3073:3081  oldOwner */\n      dup2\n        /* \"@openzeppelin/contracts/access/Ownable.sol\":3052:3092  OwnershipTransferred(oldOwner, newOwner) */\n      0xffffffffffffffffffffffffffffffffffffffff\n      and\n      0x8be0079c531659141344cd1fd0a4f28419497f9722a3daafe3b4186f6b6457e0\n      mload(0x40)\n      mload(0x40)\n      dup1\n      swap2\n      sub\n      swap1\n      log3\n        /* \"@openzeppelin/contracts/access/Ownable.sol\":2975:3099  {... */\n      pop\n        /* \"@openzeppelin/contracts/access/Ownable.sol\":2912:3099  function _transferOwnership(address newOwner) internal virtual {... */\n      pop\n      jump\t// out\n        /* \"@openzeppelin/contracts/utils/Context.sol\":656:752  function _msgSender() internal view virtual returns (address) {... */\n    tag_177:\n        /* \"@openzeppelin/contracts/utils/Context.sol\":709:716  address */\n      0x00\n        /* \"@openzeppelin/contracts/utils/Context.sol\":735:745  msg.sender */\n      caller\n        /* \"@openzeppelin/contracts/utils/Context.sol\":728:745  return msg.sender */\n      swap1\n      pop\n        /* \"@openzeppelin/contracts/utils/Context.sol\":656:752  function _msgSender() internal view virtual returns (address) {... */\n      swap1\n      jump\t// out\n        /* \"#utility.yul\":88:205   */\n    tag_185:\n        /* \"#utility.yul\":197:198   */\n      0x00\n        /* \"#utility.yul\":194:195   */\n      dup1\n        /* \"#utility.yul\":187:199   */\n      revert\n        /* \"#utility.yul\":334:460   */\n    tag_187:\n        /* \"#utility.yul\":371:378   */\n      0x00\n        /* \"#utility.yul\":411:453   */\n      0xffffffffffffffffffffffffffffffffffffffff\n        /* \"#utility.yul\":404:409   */\n      dup3\n        /* \"#utility.yul\":400:454   */\n      and\n        /* \"#utility.yul\":389:454   */\n      swap1\n      pop\n        /* \"#utility.yul\":334:460   */\n      swap2\n      swap1\n      pop\n      jump\t// out\n        /* \"#utility.yul\":466:562   */\n    tag_188:\n        /* \"#utility.yul\":503:510   */\n      0x00\n        /* \"#utility.yul\":532:556   */\n      tag_224\n        /* \"#utility.yul\":550:555   */\n      dup3\n        /* \"#utility.yul\":532:556   */\n      tag_187\n      jump\t// in\n    tag_224:\n        /* \"#utility.yul\":521:556   */\n      swap1\n      pop\n        /* \"#utility.yul\":466:562   */\n      swap2\n      swap1\n      pop\n      jump\t// out\n        /* \"#utility.yul\":568:690   */\n    tag_189:\n        /* \"#utility.yul\":641:665   */\n      tag_226\n        /* \"#utility.yul\":659:664   */\n      dup2\n        /* \"#utility.yul\":641:665   */\n      tag_188\n      jump\t// in\n    tag_226:\n        /* \"#utility.yul\":634:639   */\n      dup2\n        /* \"#utility.yul\":631:666   */\n      eq\n        /* \"#utility.yul\":621:684   */\n      tag_227\n      jumpi\n        /* \"#utility.yul\":680:681   */\n      0x00\n        /* \"#utility.yul\":677:678   */\n      dup1\n        /* \"#utility.yul\":670:682   */\n      revert\n        /* \"#utility.yul\":621:684   */\n    tag_227:\n        /* \"#utility.yul\":568:690   */\n      pop\n      jump\t// out\n        /* \"#utility.yul\":696:835   */\n    tag_190:\n        /* \"#utility.yul\":742:747   */\n      0x00\n        /* \"#utility.yul\":780:786   */\n      dup2\n        /* \"#utility.yul\":767:787   */\n      calldataload\n        /* \"#utility.yul\":758:787   */\n      swap1\n      pop\n        /* \"#utility.yul\":796:829   */\n      tag_229\n        /* \"#utility.yul\":823:828   */\n      dup2\n        /* \"#utility.yul\":796:829   */\n      tag_189\n      jump\t// in\n    tag_229:\n        /* \"#utility.yul\":696:835   */\n      swap3\n      swap2\n      pop\n      pop\n      jump\t// out\n        /* \"#utility.yul\":841:1170   */\n    tag_21:\n        /* \"#utility.yul\":900:906   */\n      0x00\n        /* \"#utility.yul\":949:951   */\n      0x20\n        /* \"#utility.yul\":937:946   */\n      dup3\n        /* \"#utility.yul\":928:935   */\n      dup5\n        /* \"#utility.yul\":924:947   */\n      sub\n        /* \"#utility.yul\":920:952   */\n      slt\n        /* \"#utility.yul\":917:1036   */\n      iszero\n      tag_231\n      jumpi\n        /* \"#utility.yul\":955:1034   */\n      tag_232\n      tag_185\n      jump\t// in\n    tag_232:\n        /* \"#utility.yul\":917:1036   */\n    tag_231:\n        /* \"#utility.yul\":1075:1076   */\n      0x00\n        /* \"#utility.yul\":1100:1153   */\n      tag_233\n        /* \"#utility.yul\":1145:1152   */\n      dup5\n        /* \"#utility.yul\":1136:1142   */\n      dup3\n        /* \"#utility.yul\":1125:1134   */\n      dup6\n        /* \"#utility.yul\":1121:1143   */\n      add\n        /* \"#utility.yul\":1100:1153   */\n      tag_190\n      jump\t// in\n    tag_233:\n        /* \"#utility.yul\":1090:1153   */\n      swap2\n      pop\n        /* \"#utility.yul\":1046:1163   */\n      pop\n        /* \"#utility.yul\":841:1170   */\n      swap3\n      swap2\n      pop\n      pop\n      jump\t// out\n        /* \"#utility.yul\":1176:1253   */\n    tag_191:\n        /* \"#utility.yul\":1213:1220   */\n      0x00\n        /* \"#utility.yul\":1242:1247   */\n      dup2\n        /* \"#utility.yul\":1231:1247   */\n      swap1\n      pop\n        /* \"#utility.yul\":1176:1253   */\n      swap2\n      swap1\n      pop\n      jump\t// out\n        /* \"#utility.yul\":1259:1377   */\n    tag_192:\n        /* \"#utility.yul\":1346:1370   */\n      tag_236\n        /* \"#utility.yul\":1364:1369   */\n      dup2\n        /* \"#utility.yul\":1346:1370   */\n      tag_191\n      jump\t// in\n    tag_236:\n        /* \"#utility.yul\":1341:1344   */\n      dup3\n        /* \"#utility.yul\":1334:1371   */\n      mstore\n        /* \"#utility.yul\":1259:1377   */\n      pop\n      pop\n      jump\t// out\n        /* \"#utility.yul\":1383:1605   */\n    tag_24:\n        /* \"#utility.yul\":1476:1480   */\n      0x00\n        /* \"#utility.yul\":1514:1516   */\n      0x20\n        /* \"#utility.yul\":1503:1512   */\n      dup3\n        /* \"#utility.yul\":1499:1517   */\n      add\n        /* \"#utility.yul\":1491:1517   */\n      swap1\n      pop\n        /* \"#utility.yul\":1527:1598   */\n      tag_238\n        /* \"#utility.yul\":1595:1596   */\n      0x00\n        /* \"#utility.yul\":1584:1593   */\n      dup4\n        /* \"#utility.yul\":1580:1597   */\n      add\n        /* \"#utility.yul\":1571:1577   */\n      dup5\n        /* \"#utility.yul\":1527:1598   */\n      tag_192\n      jump\t// in\n    tag_238:\n        /* \"#utility.yul\":1383:1605   */\n      swap3\n      swap2\n      pop\n      pop\n      jump\t// out\n        /* \"#utility.yul\":1611:1729   */\n    tag_193:\n        /* \"#utility.yul\":1698:1722   */\n      tag_240\n        /* \"#utility.yul\":1716:1721   */\n      dup2\n        /* \"#utility.yul\":1698:1722   */\n      tag_188\n      jump\t// in\n    tag_240:\n        /* \"#utility.yul\":1693:1696   */\n      dup3\n        /* \"#utility.yul\":1686:1723   */\n      mstore\n        /* \"#utility.yul\":1611:1729   */\n      pop\n      pop\n      jump\t// out\n        /* \"#utility.yul\":1735:1957   */\n    tag_36:\n        /* \"#utility.yul\":1828:1832   */\n      0x00\n        /* \"#utility.yul\":1866:1868   */\n      0x20\n        /* \"#utility.yul\":1855:1864   */\n      dup3\n        /* \"#utility.yul\":1851:1869   */\n      add\n        /* \"#utility.yul\":1843:1869   */\n      swap1\n      pop\n        /* \"#utility.yul\":1879:1950   */\n      tag_242\n        /* \"#utility.yul\":1947:1948   */\n      0x00\n        /* \"#utility.yul\":1936:1945   */\n      dup4\n        /* \"#utility.yul\":1932:1949   */\n      add\n        /* \"#utility.yul\":1923:1929   */\n      dup5\n        /* \"#utility.yul\":1879:1950   */\n      tag_193\n      jump\t// in\n    tag_242:\n        /* \"#utility.yul\":1735:1957   */\n      swap3\n      swap2\n      pop\n      pop\n      jump\t// out\n        /* \"#utility.yul\":1963:2077   */\n    tag_194:\n        /* \"#utility.yul\":2030:2036   */\n      0x00\n        /* \"#utility.yul\":2064:2069   */\n      dup2\n        /* \"#utility.yul\":2058:2070   */\n      mload\n        /* \"#utility.yul\":2048:2070   */\n      swap1\n      pop\n        /* \"#utility.yul\":1963:2077   */\n      swap2\n      swap1\n      pop\n      jump\t// out\n        /* \"#utility.yul\":2083:2267   */\n    tag_195:\n        /* \"#utility.yul\":2182:2193   */\n      0x00\n        /* \"#utility.yul\":2216:2222   */\n      dup3\n        /* \"#utility.yul\":2211:2214   */\n      dup3\n        /* \"#utility.yul\":2204:2223   */\n      mstore\n        /* \"#utility.yul\":2256:2260   */\n      0x20\n        /* \"#utility.yul\":2251:2254   */\n      dup3\n        /* \"#utility.yul\":2247:2261   */\n      add\n        /* \"#utility.yul\":2232:2261   */\n      swap1\n      pop\n        /* \"#utility.yul\":2083:2267   */\n      swap3\n      swap2\n      pop\n      pop\n      jump\t// out\n        /* \"#utility.yul\":2273:2405   */\n    tag_196:\n        /* \"#utility.yul\":2340:2344   */\n      0x00\n        /* \"#utility.yul\":2363:2366   */\n      dup2\n        /* \"#utility.yul\":2355:2366   */\n      swap1\n      pop\n        /* \"#utility.yul\":2393:2397   */\n      0x20\n        /* \"#utility.yul\":2388:2391   */\n      dup3\n        /* \"#utility.yul\":2384:2398   */\n      add\n        /* \"#utility.yul\":2376:2398   */\n      swap1\n      pop\n        /* \"#utility.yul\":2273:2405   */\n      swap2\n      swap1\n      pop\n      jump\t// out\n        /* \"#utility.yul\":2411:2519   */\n    tag_197:\n        /* \"#utility.yul\":2488:2512   */\n      tag_247\n        /* \"#utility.yul\":2506:2511   */\n      dup2\n        /* \"#utility.yul\":2488:2512   */\n      tag_188\n      jump\t// in\n    tag_247:\n        /* \"#utility.yul\":2483:2486   */\n      dup3\n        /* \"#utility.yul\":2476:2513   */\n      mstore\n        /* \"#utility.yul\":2411:2519   */\n      pop\n      pop\n      jump\t// out\n        /* \"#utility.yul\":2525:2704   */\n    tag_198:\n        /* \"#utility.yul\":2594:2604   */\n      0x00\n        /* \"#utility.yul\":2615:2661   */\n      tag_249\n        /* \"#utility.yul\":2657:2660   */\n      dup4\n        /* \"#utility.yul\":2649:2655   */\n      dup4\n        /* \"#utility.yul\":2615:2661   */\n      tag_197\n      jump\t// in\n    tag_249:\n        /* \"#utility.yul\":2693:2697   */\n      0x20\n        /* \"#utility.yul\":2688:2691   */\n      dup4\n        /* \"#utility.yul\":2684:2698   */\n      add\n        /* \"#utility.yul\":2670:2698   */\n      swap1\n      pop\n        /* \"#utility.yul\":2525:2704   */\n      swap3\n      swap2\n      pop\n      pop\n      jump\t// out\n        /* \"#utility.yul\":2710:2823   */\n    tag_199:\n        /* \"#utility.yul\":2780:2784   */\n      0x00\n        /* \"#utility.yul\":2812:2816   */\n      0x20\n        /* \"#utility.yul\":2807:2810   */\n      dup3\n        /* \"#utility.yul\":2803:2817   */\n      add\n        /* \"#utility.yul\":2795:2817   */\n      swap1\n      pop\n        /* \"#utility.yul\":2710:2823   */\n      swap2\n      swap1\n      pop\n      jump\t// out\n        /* \"#utility.yul\":2859:3591   */\n    tag_200:\n        /* \"#utility.yul\":2978:2981   */\n      0x00\n        /* \"#utility.yul\":3007:3061   */\n      tag_252\n        /* \"#utility.yul\":3055:3060   */\n      dup3\n        /* \"#utility.yul\":3007:3061   */\n      tag_194\n      jump\t// in\n    tag_252:\n        /* \"#utility.yul\":3077:3163   */\n      tag_253\n        /* \"#utility.yul\":3156:3162   */\n      dup2\n        /* \"#utility.yul\":3151:3154   */\n      dup6\n        /* \"#utility.yul\":3077:3163   */\n      tag_195\n      jump\t// in\n    tag_253:\n        /* \"#utility.yul\":3070:3163   */\n      swap4\n      pop\n        /* \"#utility.yul\":3187:3243   */\n      tag_254\n        /* \"#utility.yul\":3237:3242   */\n      dup4\n        /* \"#utility.yul\":3187:3243   */\n      tag_196\n      jump\t// in\n    tag_254:\n        /* \"#utility.yul\":3266:3273   */\n      dup1\n        /* \"#utility.yul\":3297:3298   */\n      0x00\n        /* \"#utility.yul\":3282:3566   */\n    tag_255:\n        /* \"#utility.yul\":3307:3313   */\n      dup4\n        /* \"#utility.yul\":3304:3305   */\n      dup2\n        /* \"#utility.yul\":3301:3314   */\n      lt\n        /* \"#utility.yul\":3282:3566   */\n      iszero\n      tag_257\n      jumpi\n        /* \"#utility.yul\":3383:3389   */\n      dup2\n        /* \"#utility.yul\":3377:3390   */\n      mload\n        /* \"#utility.yul\":3410:3473   */\n      tag_258\n        /* \"#utility.yul\":3469:3472   */\n      dup9\n        /* \"#utility.yul\":3454:3467   */\n      dup3\n        /* \"#utility.yul\":3410:3473   */\n      tag_198\n      jump\t// in\n    tag_258:\n        /* \"#utility.yul\":3403:3473   */\n      swap8\n      pop\n        /* \"#utility.yul\":3496:3556   */\n      tag_259\n        /* \"#utility.yul\":3549:3555   */\n      dup4\n        /* \"#utility.yul\":3496:3556   */\n      tag_199\n      jump\t// in\n    tag_259:\n        /* \"#utility.yul\":3486:3556   */\n      swap3\n      pop\n        /* \"#utility.yul\":3342:3566   */\n      pop\n        /* \"#utility.yul\":3329:3330   */\n      0x01\n        /* \"#utility.yul\":3326:3327   */\n      dup2\n        /* \"#utility.yul\":3322:3331   */\n      add\n        /* \"#utility.yul\":3317:3331   */\n      swap1\n      pop\n        /* \"#utility.yul\":3282:3566   */\n      jump(tag_255)\n    tag_257:\n        /* \"#utility.yul\":3286:3300   */\n      pop\n        /* \"#utility.yul\":3582:3585   */\n      dup6\n        /* \"#utility.yul\":3575:3585   */\n      swap4\n      pop\n        /* \"#utility.yul\":2983:3591   */\n      pop\n      pop\n      pop\n        /* \"#utility.yul\":2859:3591   */\n      swap3\n      swap2\n      pop\n      pop\n      jump\t// out\n        /* \"#utility.yul\":3597:3970   */\n    tag_41:\n        /* \"#utility.yul\":3740:3744   */\n      0x00\n        /* \"#utility.yul\":3778:3780   */\n      0x20\n        /* \"#utility.yul\":3767:3776   */\n      dup3\n        /* \"#utility.yul\":3763:3781   */\n      add\n        /* \"#utility.yul\":3755:3781   */\n      swap1\n      pop\n        /* \"#utility.yul\":3827:3836   */\n      dup2\n        /* \"#utility.yul\":3821:3825   */\n      dup2\n        /* \"#utility.yul\":3817:3837   */\n      sub\n        /* \"#utility.yul\":3813:3814   */\n      0x00\n        /* \"#utility.yul\":3802:3811   */\n      dup4\n        /* \"#utility.yul\":3798:3815   */\n      add\n        /* \"#utility.yul\":3791:3838   */\n      mstore\n        /* \"#utility.yul\":3855:3963   */\n      tag_261\n        /* \"#utility.yul\":3958:3962   */\n      dup2\n        /* \"#utility.yul\":3949:3955   */\n      dup5\n        /* \"#utility.yul\":3855:3963   */\n      tag_200\n      jump\t// in\n    tag_261:\n        /* \"#utility.yul\":3847:3963   */\n      swap1\n      pop\n        /* \"#utility.yul\":3597:3970   */\n      swap3\n      swap2\n      pop\n      pop\n      jump\t// out\n        /* \"#utility.yul\":3976:4090   */\n    tag_201:\n        /* \"#utility.yul\":4043:4049   */\n      0x00\n        /* \"#utility.yul\":4077:4082   */\n      dup2\n        /* \"#utility.yul\":4071:4083   */\n      mload\n        /* \"#utility.yul\":4061:4083   */\n      swap1\n      pop\n        /* \"#utility.yul\":3976:4090   */\n      swap2\n      swap1\n      pop\n      jump\t// out\n        /* \"#utility.yul\":4096:4280   */\n    tag_202:\n        /* \"#utility.yul\":4195:4206   */\n      0x00\n        /* \"#utility.yul\":4229:4235   */\n      dup3\n        /* \"#utility.yul\":4224:4227   */\n      dup3\n        /* \"#utility.yul\":4217:4236   */\n      mstore\n        /* \"#utility.yul\":4269:4273   */\n      0x20\n        /* \"#utility.yul\":4264:4267   */\n      dup3\n        /* \"#utility.yul\":4260:4274   */\n      add\n        /* \"#utility.yul\":4245:4274   */\n      swap1\n      pop\n        /* \"#utility.yul\":4096:4280   */\n      swap3\n      swap2\n      pop\n      pop\n      jump\t// out\n        /* \"#utility.yul\":4286:4418   */\n    tag_203:\n        /* \"#utility.yul\":4353:4357   */\n      0x00\n        /* \"#utility.yul\":4376:4379   */\n      dup2\n        /* \"#utility.yul\":4368:4379   */\n      swap1\n      pop\n        /* \"#utility.yul\":4406:4410   */\n      0x20\n        /* \"#utility.yul\":4401:4404   */\n      dup3\n        /* \"#utility.yul\":4397:4411   */\n      add\n        /* \"#utility.yul\":4389:4411   */\n      swap1\n      pop\n        /* \"#utility.yul\":4286:4418   */\n      swap2\n      swap1\n      pop\n      jump\t// out\n        /* \"#utility.yul\":4424:4532   */\n    tag_204:\n        /* \"#utility.yul\":4501:4525   */\n      tag_266\n        /* \"#utility.yul\":4519:4524   */\n      dup2\n        /* \"#utility.yul\":4501:4525   */\n      tag_191\n      jump\t// in\n    tag_266:\n        /* \"#utility.yul\":4496:4499   */\n      dup3\n        /* \"#utility.yul\":4489:4526   */\n      mstore\n        /* \"#utility.yul\":4424:4532   */\n      pop\n      pop\n      jump\t// out\n        /* \"#utility.yul\":4538:4717   */\n    tag_205:\n        /* \"#utility.yul\":4607:4617   */\n      0x00\n        /* \"#utility.yul\":4628:4674   */\n      tag_268\n        /* \"#utility.yul\":4670:4673   */\n      dup4\n        /* \"#utility.yul\":4662:4668   */\n      dup4\n        /* \"#utility.yul\":4628:4674   */\n      tag_204\n      jump\t// in\n    tag_268:\n        /* \"#utility.yul\":4706:4710   */\n      0x20\n        /* \"#utility.yul\":4701:4704   */\n      dup4\n        /* \"#utility.yul\":4697:4711   */\n      add\n        /* \"#utility.yul\":4683:4711   */\n      swap1\n      pop\n        /* \"#utility.yul\":4538:4717   */\n      swap3\n      swap2\n      pop\n      pop\n      jump\t// out\n        /* \"#utility.yul\":4723:4836   */\n    tag_206:\n        /* \"#utility.yul\":4793:4797   */\n      0x00\n        /* \"#utility.yul\":4825:4829   */\n      0x20\n        /* \"#utility.yul\":4820:4823   */\n      dup3\n        /* \"#utility.yul\":4816:4830   */\n      add\n        /* \"#utility.yul\":4808:4830   */\n      swap1\n      pop\n        /* \"#utility.yul\":4723:4836   */\n      swap2\n      swap1\n      pop\n      jump\t// out\n        /* \"#utility.yul\":4872:5604   */\n    tag_207:\n        /* \"#utility.yul\":4991:4994   */\n      0x00\n        /* \"#utility.yul\":5020:5074   */\n      tag_271\n        /* \"#utility.yul\":5068:5073   */\n      dup3\n        /* \"#utility.yul\":5020:5074   */\n      tag_201\n      jump\t// in\n    tag_271:\n        /* \"#utility.yul\":5090:5176   */\n      tag_272\n        /* \"#utility.yul\":5169:5175   */\n      dup2\n        /* \"#utility.yul\":5164:5167   */\n      dup6\n        /* \"#utility.yul\":5090:5176   */\n      tag_202\n      jump\t// in\n    tag_272:\n        /* \"#utility.yul\":5083:5176   */\n      swap4\n      pop\n        /* \"#utility.yul\":5200:5256   */\n      tag_273\n        /* \"#utility.yul\":5250:5255   */\n      dup4\n        /* \"#utility.yul\":5200:5256   */\n      tag_203\n      jump\t// in\n    tag_273:\n        /* \"#utility.yul\":5279:5286   */\n      dup1\n        /* \"#utility.yul\":5310:5311   */\n      0x00\n        /* \"#utility.yul\":5295:5579   */\n    tag_274:\n        /* \"#utility.yul\":5320:5326   */\n      dup4\n        /* \"#utility.yul\":5317:5318   */\n      dup2\n        /* \"#utility.yul\":5314:5327   */\n      lt\n        /* \"#utility.yul\":5295:5579   */\n      iszero\n      tag_276\n      jumpi\n        /* \"#utility.yul\":5396:5402   */\n      dup2\n        /* \"#utility.yul\":5390:5403   */\n      mload\n        /* \"#utility.yul\":5423:5486   */\n      tag_277\n        /* \"#utility.yul\":5482:5485   */\n      dup9\n        /* \"#utility.yul\":5467:5480   */\n      dup3\n        /* \"#utility.yul\":5423:5486   */\n      tag_205\n      jump\t// in\n    tag_277:\n        /* \"#utility.yul\":5416:5486   */\n      swap8\n      pop\n        /* \"#utility.yul\":5509:5569   */\n      tag_278\n        /* \"#utility.yul\":5562:5568   */\n      dup4\n        /* \"#utility.yul\":5509:5569   */\n      tag_206\n      jump\t// in\n    tag_278:\n        /* \"#utility.yul\":5499:5569   */\n      swap3\n      pop\n        /* \"#utility.yul\":5355:5579   */\n      pop\n        /* \"#utility.yul\":5342:5343   */\n      0x01\n        /* \"#utility.yul\":5339:5340   */\n      dup2\n        /* \"#utility.yul\":5335:5344   */\n      add\n        /* \"#utility.yul\":5330:5344   */\n      swap1\n      pop\n        /* \"#utility.yul\":5295:5579   */\n      jump(tag_274)\n    tag_276:\n        /* \"#utility.yul\":5299:5313   */\n      pop\n        /* \"#utility.yul\":5595:5598   */\n      dup6\n        /* \"#utility.yul\":5588:5598   */\n      swap4\n      pop\n        /* \"#utility.yul\":4996:5604   */\n      pop\n      pop\n      pop\n        /* \"#utility.yul\":4872:5604   */\n      swap3\n      swap2\n      pop\n      pop\n      jump\t// out\n        /* \"#utility.yul\":5610:6244   */\n    tag_46:\n        /* \"#utility.yul\":5831:5835   */\n      0x00\n        /* \"#utility.yul\":5869:5871   */\n      0x40\n        /* \"#utility.yul\":5858:5867   */\n      dup3\n        /* \"#utility.yul\":5854:5872   */\n      add\n        /* \"#utility.yul\":5846:5872   */\n      swap1\n      pop\n        /* \"#utility.yul\":5918:5927   */\n      dup2\n        /* \"#utility.yul\":5912:5916   */\n      dup2\n        /* \"#utility.yul\":5908:5928   */\n      sub\n        /* \"#utility.yul\":5904:5905   */\n      0x00\n        /* \"#utility.yul\":5893:5902   */\n      dup4\n        /* \"#utility.yul\":5889:5906   */\n      add\n        /* \"#utility.yul\":5882:5929   */\n      mstore\n        /* \"#utility.yul\":5946:6054   */\n      tag_280\n        /* \"#utility.yul\":6049:6053   */\n      dup2\n        /* \"#utility.yul\":6040:6046   */\n      dup6\n        /* \"#utility.yul\":5946:6054   */\n      tag_200\n      jump\t// in\n    tag_280:\n        /* \"#utility.yul\":5938:6054   */\n      swap1\n      pop\n        /* \"#utility.yul\":6101:6110   */\n      dup2\n        /* \"#utility.yul\":6095:6099   */\n      dup2\n        /* \"#utility.yul\":6091:6111   */\n      sub\n        /* \"#utility.yul\":6086:6088   */\n      0x20\n        /* \"#utility.yul\":6075:6084   */\n      dup4\n        /* \"#utility.yul\":6071:6089   */\n      add\n        /* \"#utility.yul\":6064:6112   */\n      mstore\n        /* \"#utility.yul\":6129:6237   */\n      tag_281\n        /* \"#utility.yul\":6232:6236   */\n      dup2\n        /* \"#utility.yul\":6223:6229   */\n      dup5\n        /* \"#utility.yul\":6129:6237   */\n      tag_207\n      jump\t// in\n    tag_281:\n        /* \"#utility.yul\":6121:6237   */\n      swap1\n      pop\n        /* \"#utility.yul\":5610:6244   */\n      swap4\n      swap3\n      pop\n      pop\n      pop\n      jump\t// out\n        /* \"#utility.yul\":6250:6419   */\n    tag_208:\n        /* \"#utility.yul\":6334:6345   */\n      0x00\n        /* \"#utility.yul\":6368:6374   */\n      dup3\n        /* \"#utility.yul\":6363:6366   */\n      dup3\n        /* \"#utility.yul\":6356:6375   */\n      mstore\n        /* \"#utility.yul\":6408:6412   */\n      0x20\n        /* \"#utility.yul\":6403:6406   */\n      dup3\n        /* \"#utility.yul\":6399:6413   */\n      add\n        /* \"#utility.yul\":6384:6413   */\n      swap1\n      pop\n        /* \"#utility.yul\":6250:6419   */\n      swap3\n      swap2\n      pop\n      pop\n      jump\t// out\n        /* \"#utility.yul\":6425:6740   */\n    tag_209:\n        /* \"#utility.yul\":6565:6631   */\n      0xe59088e7baa6e4b8ade6b2a1e69c89e58fafe68f90e58f96e79a84e8b584e987\n        /* \"#utility.yul\":6561:6562   */\n      0x00\n        /* \"#utility.yul\":6553:6559   */\n      dup3\n        /* \"#utility.yul\":6549:6563   */\n      add\n        /* \"#utility.yul\":6542:6632   */\n      mstore\n        /* \"#utility.yul\":6666:6732   */\n      0x9121000000000000000000000000000000000000000000000000000000000000\n        /* \"#utility.yul\":6661:6663   */\n      0x20\n        /* \"#utility.yul\":6653:6659   */\n      dup3\n        /* \"#utility.yul\":6649:6664   */\n      add\n        /* \"#utility.yul\":6642:6733   */\n      mstore\n        /* \"#utility.yul\":6425:6740   */\n      pop\n      jump\t// out\n        /* \"#utility.yul\":6746:7112   */\n    tag_210:\n        /* \"#utility.yul\":6888:6891   */\n      0x00\n        /* \"#utility.yul\":6909:6976   */\n      tag_285\n        /* \"#utility.yul\":6973:6975   */\n      0x22\n        /* \"#utility.yul\":6968:6971   */\n      dup4\n        /* \"#utility.yul\":6909:6976   */\n      tag_208\n      jump\t// in\n    tag_285:\n        /* \"#utility.yul\":6902:6976   */\n      swap2\n      pop\n        /* \"#utility.yul\":6985:7078   */\n      tag_286\n        /* \"#utility.yul\":7074:7077   */\n      dup3\n        /* \"#utility.yul\":6985:7078   */\n      tag_209\n      jump\t// in\n    tag_286:\n        /* \"#utility.yul\":7103:7105   */\n      0x40\n        /* \"#utility.yul\":7098:7101   */\n      dup3\n        /* \"#utility.yul\":7094:7106   */\n      add\n        /* \"#utility.yul\":7087:7106   */\n      swap1\n      pop\n        /* \"#utility.yul\":6746:7112   */\n      swap2\n      swap1\n      pop\n      jump\t// out\n        /* \"#utility.yul\":7118:7537   */\n    tag_71:\n        /* \"#utility.yul\":7284:7288   */\n      0x00\n        /* \"#utility.yul\":7322:7324   */\n      0x20\n        /* \"#utility.yul\":7311:7320   */\n      dup3\n        /* \"#utility.yul\":7307:7325   */\n      add\n        /* \"#utility.yul\":7299:7325   */\n      swap1\n      pop\n        /* \"#utility.yul\":7371:7380   */\n      dup2\n        /* \"#utility.yul\":7365:7369   */\n      dup2\n        /* \"#utility.yul\":7361:7381   */\n      sub\n        /* \"#utility.yul\":7357:7358   */\n      0x00\n        /* \"#utility.yul\":7346:7355   */\n      dup4\n        /* \"#utility.yul\":7342:7359   */\n      add\n        /* \"#utility.yul\":7335:7382   */\n      mstore\n        /* \"#utility.yul\":7399:7530   */\n      tag_288\n        /* \"#utility.yul\":7525:7529   */\n      dup2\n        /* \"#utility.yul\":7399:7530   */\n      tag_210\n      jump\t// in\n    tag_288:\n        /* \"#utility.yul\":7391:7530   */\n      swap1\n      pop\n        /* \"#utility.yul\":7118:7537   */\n      swap2\n      swap1\n      pop\n      jump\t// out\n        /* \"#utility.yul\":7543:7875   */\n    tag_76:\n        /* \"#utility.yul\":7664:7668   */\n      0x00\n        /* \"#utility.yul\":7702:7704   */\n      0x40\n        /* \"#utility.yul\":7691:7700   */\n      dup3\n        /* \"#utility.yul\":7687:7705   */\n      add\n        /* \"#utility.yul\":7679:7705   */\n      swap1\n      pop\n        /* \"#utility.yul\":7715:7786   */\n      tag_290\n        /* \"#utility.yul\":7783:7784   */\n      0x00\n        /* \"#utility.yul\":7772:7781   */\n      dup4\n        /* \"#utility.yul\":7768:7785   */\n      add\n        /* \"#utility.yul\":7759:7765   */\n      dup6\n        /* \"#utility.yul\":7715:7786   */\n      tag_192\n      jump\t// in\n    tag_290:\n        /* \"#utility.yul\":7796:7868   */\n      tag_291\n        /* \"#utility.yul\":7864:7866   */\n      0x20\n        /* \"#utility.yul\":7853:7862   */\n      dup4\n        /* \"#utility.yul\":7849:7867   */\n      add\n        /* \"#utility.yul\":7840:7846   */\n      dup5\n        /* \"#utility.yul\":7796:7868   */\n      tag_192\n      jump\t// in\n    tag_291:\n        /* \"#utility.yul\":7543:7875   */\n      swap4\n      swap3\n      pop\n      pop\n      pop\n      jump\t// out\n        /* \"#utility.yul\":7881:8061   */\n    tag_91:\n        /* \"#utility.yul\":7929:8006   */\n      0x4e487b7100000000000000000000000000000000000000000000000000000000\n        /* \"#utility.yul\":7926:7927   */\n      0x00\n        /* \"#utility.yul\":7919:8007   */\n      mstore\n        /* \"#utility.yul\":8026:8030   */\n      0x41\n        /* \"#utility.yul\":8023:8024   */\n      0x04\n        /* \"#utility.yul\":8016:8031   */\n      mstore\n        /* \"#utility.yul\":8050:8054   */\n      0x24\n        /* \"#utility.yul\":8047:8048   */\n      0x00\n        /* \"#utility.yul\":8040:8055   */\n      revert\n        /* \"#utility.yul\":8067:8247   */\n    tag_101:\n        /* \"#utility.yul\":8115:8192   */\n      0x4e487b7100000000000000000000000000000000000000000000000000000000\n        /* \"#utility.yul\":8112:8113   */\n      0x00\n        /* \"#utility.yul\":8105:8193   */\n      mstore\n        /* \"#utility.yul\":8212:8216   */\n      0x32\n        /* \"#utility.yul\":8209:8210   */\n      0x04\n        /* \"#utility.yul\":8202:8217   */\n      mstore\n        /* \"#utility.yul\":8236:8240   */\n      0x24\n        /* \"#utility.yul\":8233:8234   */\n      0x00\n        /* \"#utility.yul\":8226:8241   */\n      revert\n        /* \"#utility.yul\":8253:8467   */\n    tag_211:\n        /* \"#utility.yul\":8393:8459   */\n      0xe68d90e8b5a0e69caae5bc80e5a78b0000000000000000000000000000000000\n        /* \"#utility.yul\":8389:8390   */\n      0x00\n        /* \"#utility.yul\":8381:8387   */\n      dup3\n        /* \"#utility.yul\":8377:8391   */\n      add\n        /* \"#utility.yul\":8370:8460   */\n      mstore\n        /* \"#utility.yul\":8253:8467   */\n      pop\n      jump\t// out\n        /* \"#utility.yul\":8473:8839   */\n    tag_212:\n        /* \"#utility.yul\":8615:8618   */\n      0x00\n        /* \"#utility.yul\":8636:8703   */\n      tag_296\n        /* \"#utility.yul\":8700:8702   */\n      0x0f\n        /* \"#utility.yul\":8695:8698   */\n      dup4\n        /* \"#utility.yul\":8636:8703   */\n      tag_208\n      jump\t// in\n    tag_296:\n        /* \"#utility.yul\":8629:8703   */\n      swap2\n      pop\n        /* \"#utility.yul\":8712:8805   */\n      tag_297\n        /* \"#utility.yul\":8801:8804   */\n      dup3\n        /* \"#utility.yul\":8712:8805   */\n      tag_211\n      jump\t// in\n    tag_297:\n        /* \"#utility.yul\":8830:8832   */\n      0x20\n        /* \"#utility.yul\":8825:8828   */\n      dup3\n        /* \"#utility.yul\":8821:8833   */\n      add\n        /* \"#utility.yul\":8814:8833   */\n      swap1\n      pop\n        /* \"#utility.yul\":8473:8839   */\n      swap2\n      swap1\n      pop\n      jump\t// out\n        /* \"#utility.yul\":8845:9264   */\n    tag_153:\n        /* \"#utility.yul\":9011:9015   */\n      0x00\n        /* \"#utility.yul\":9049:9051   */\n      0x20\n        /* \"#utility.yul\":9038:9047   */\n      dup3\n        /* \"#utility.yul\":9034:9052   */\n      add\n        /* \"#utility.yul\":9026:9052   */\n      swap1\n      pop\n        /* \"#utility.yul\":9098:9107   */\n      dup2\n        /* \"#utility.yul\":9092:9096   */\n      dup2\n        /* \"#utility.yul\":9088:9108   */\n      sub\n        /* \"#utility.yul\":9084:9085   */\n      0x00\n        /* \"#utility.yul\":9073:9082   */\n      dup4\n        /* \"#utility.yul\":9069:9086   */\n      add\n        /* \"#utility.yul\":9062:9109   */\n      mstore\n        /* \"#utility.yul\":9126:9257   */\n      tag_299\n        /* \"#utility.yul\":9252:9256   */\n      dup2\n        /* \"#utility.yul\":9126:9257   */\n      tag_212\n      jump\t// in\n    tag_299:\n        /* \"#utility.yul\":9118:9257   */\n      swap1\n      pop\n        /* \"#utility.yul\":8845:9264   */\n      swap2\n      swap1\n      pop\n      jump\t// out\n        /* \"#utility.yul\":9270:9484   */\n    tag_213:\n        /* \"#utility.yul\":9410:9476   */\n      0xe68d90e8b5a0e5b7b2e7bb93e69d9f0000000000000000000000000000000000\n        /* \"#utility.yul\":9406:9407   */\n      0x00\n        /* \"#utility.yul\":9398:9404   */\n      dup3\n        /* \"#utility.yul\":9394:9408   */\n      add\n        /* \"#utility.yul\":9387:9477   */\n      mstore\n        /* \"#utility.yul\":9270:9484   */\n      pop\n      jump\t// out\n        /* \"#utility.yul\":9490:9856   */\n    tag_214:\n        /* \"#utility.yul\":9632:9635   */\n      0x00\n        /* \"#utility.yul\":9653:9720   */\n      tag_302\n        /* \"#utility.yul\":9717:9719   */\n      0x0f\n        /* \"#utility.yul\":9712:9715   */\n      dup4\n        /* \"#utility.yul\":9653:9720   */\n      tag_208\n      jump\t// in\n    tag_302:\n        /* \"#utility.yul\":9646:9720   */\n      swap2\n      pop\n        /* \"#utility.yul\":9729:9822   */\n      tag_303\n        /* \"#utility.yul\":9818:9821   */\n      dup3\n        /* \"#utility.yul\":9729:9822   */\n      tag_213\n      jump\t// in\n    tag_303:\n        /* \"#utility.yul\":9847:9849   */\n      0x20\n        /* \"#utility.yul\":9842:9845   */\n      dup3\n        /* \"#utility.yul\":9838:9850   */\n      add\n        /* \"#utility.yul\":9831:9850   */\n      swap1\n      pop\n        /* \"#utility.yul\":9490:9856   */\n      swap2\n      swap1\n      pop\n      jump\t// out\n        /* \"#utility.yul\":9862:10281   */\n    tag_156:\n        /* \"#utility.yul\":10028:10032   */\n      0x00\n        /* \"#utility.yul\":10066:10068   */\n      0x20\n        /* \"#utility.yul\":10055:10064   */\n      dup3\n        /* \"#utility.yul\":10051:10069   */\n      add\n        /* \"#utility.yul\":10043:10069   */\n      swap1\n      pop\n        /* \"#utility.yul\":10115:10124   */\n      dup2\n        /* \"#utility.yul\":10109:10113   */\n      dup2\n        /* \"#utility.yul\":10105:10125   */\n      sub\n        /* \"#utility.yul\":10101:10102   */\n      0x00\n        /* \"#utility.yul\":10090:10099   */\n      dup4\n        /* \"#utility.yul\":10086:10103   */\n      add\n        /* \"#utility.yul\":10079:10126   */\n      mstore\n        /* \"#utility.yul\":10143:10274   */\n      tag_305\n        /* \"#utility.yul\":10269:10273   */\n      dup2\n        /* \"#utility.yul\":10143:10274   */\n      tag_214\n      jump\t// in\n    tag_305:\n        /* \"#utility.yul\":10135:10274   */\n      swap1\n      pop\n        /* \"#utility.yul\":9862:10281   */\n      swap2\n      swap1\n      pop\n      jump\t// out\n        /* \"#utility.yul\":10287:10501   */\n    tag_215:\n        /* \"#utility.yul\":10427:10493   */\n      0xe68d90e8b5a0e98791e9a29de5bf85e9a1bbe5a4a7e4ba8e30efbc8100000000\n        /* \"#utility.yul\":10423:10424   */\n      0x00\n        /* \"#utility.yul\":10415:10421   */\n      dup3\n        /* \"#utility.yul\":10411:10425   */\n      add\n        /* \"#utility.yul\":10404:10494   */\n      mstore\n        /* \"#utility.yul\":10287:10501   */\n      pop\n      jump\t// out\n        /* \"#utility.yul\":10507:10873   */\n    tag_216:\n        /* \"#utility.yul\":10649:10652   */\n      0x00\n        /* \"#utility.yul\":10670:10737   */\n      tag_308\n        /* \"#utility.yul\":10734:10736   */\n      0x1c\n        /* \"#utility.yul\":10729:10732   */\n      dup4\n        /* \"#utility.yul\":10670:10737   */\n      tag_208\n      jump\t// in\n    tag_308:\n        /* \"#utility.yul\":10663:10737   */\n      swap2\n      pop\n        /* \"#utility.yul\":10746:10839   */\n      tag_309\n        /* \"#utility.yul\":10835:10838   */\n      dup3\n        /* \"#utility.yul\":10746:10839   */\n      tag_215\n      jump\t// in\n    tag_309:\n        /* \"#utility.yul\":10864:10866   */\n      0x20\n        /* \"#utility.yul\":10859:10862   */\n      dup3\n        /* \"#utility.yul\":10855:10867   */\n      add\n        /* \"#utility.yul\":10848:10867   */\n      swap1\n      pop\n        /* \"#utility.yul\":10507:10873   */\n      swap2\n      swap1\n      pop\n      jump\t// out\n        /* \"#utility.yul\":10879:11298   */\n    tag_159:\n        /* \"#utility.yul\":11045:11049   */\n      0x00\n        /* \"#utility.yul\":11083:11085   */\n      0x20\n        /* \"#utility.yul\":11072:11081   */\n      dup3\n        /* \"#utility.yul\":11068:11086   */\n      add\n        /* \"#utility.yul\":11060:11086   */\n      swap1\n      pop\n        /* \"#utility.yul\":11132:11141   */\n      dup2\n        /* \"#utility.yul\":11126:11130   */\n      dup2\n        /* \"#utility.yul\":11122:11142   */\n      sub\n        /* \"#utility.yul\":11118:11119   */\n      0x00\n        /* \"#utility.yul\":11107:11116   */\n      dup4\n        /* \"#utility.yul\":11103:11120   */\n      add\n        /* \"#utility.yul\":11096:11143   */\n      mstore\n        /* \"#utility.yul\":11160:11291   */\n      tag_311\n        /* \"#utility.yul\":11286:11290   */\n      dup2\n        /* \"#utility.yul\":11160:11291   */\n      tag_216\n      jump\t// in\n    tag_311:\n        /* \"#utility.yul\":11152:11291   */\n      swap1\n      pop\n        /* \"#utility.yul\":10879:11298   */\n      swap2\n      swap1\n      pop\n      jump\t// out\n        /* \"#utility.yul\":11304:11484   */\n    tag_217:\n        /* \"#utility.yul\":11352:11429   */\n      0x4e487b7100000000000000000000000000000000000000000000000000000000\n        /* \"#utility.yul\":11349:11350   */\n      0x00\n        /* \"#utility.yul\":11342:11430   */\n      mstore\n        /* \"#utility.yul\":11449:11453   */\n      0x11\n        /* \"#utility.yul\":11446:11447   */\n      0x04\n        /* \"#utility.yul\":11439:11454   */\n      mstore\n        /* \"#utility.yul\":11473:11477   */\n      0x24\n        /* \"#utility.yul\":11470:11471   */\n      0x00\n        /* \"#utility.yul\":11463:11478   */\n      revert\n        /* \"#utility.yul\":11490:11681   */\n    tag_163:\n        /* \"#utility.yul\":11530:11533   */\n      0x00\n        /* \"#utility.yul\":11549:11569   */\n      tag_314\n        /* \"#utility.yul\":11567:11568   */\n      dup3\n        /* \"#utility.yul\":11549:11569   */\n      tag_191\n      jump\t// in\n    tag_314:\n        /* \"#utility.yul\":11544:11569   */\n      swap2\n      pop\n        /* \"#utility.yul\":11583:11603   */\n      tag_315\n        /* \"#utility.yul\":11601:11602   */\n      dup4\n        /* \"#utility.yul\":11583:11603   */\n      tag_191\n      jump\t// in\n    tag_315:\n        /* \"#utility.yul\":11578:11603   */\n      swap3\n      pop\n        /* \"#utility.yul\":11626:11627   */\n      dup3\n        /* \"#utility.yul\":11623:11624   */\n      dup3\n        /* \"#utility.yul\":11619:11628   */\n      add\n        /* \"#utility.yul\":11612:11628   */\n      swap1\n      pop\n        /* \"#utility.yul\":11647:11650   */\n      dup1\n        /* \"#utility.yul\":11644:11645   */\n      dup3\n        /* \"#utility.yul\":11641:11651   */\n      gt\n        /* \"#utility.yul\":11638:11674   */\n      iszero\n      tag_316\n      jumpi\n        /* \"#utility.yul\":11654:11672   */\n      tag_317\n      tag_217\n      jump\t// in\n    tag_317:\n        /* \"#utility.yul\":11638:11674   */\n    tag_316:\n        /* \"#utility.yul\":11490:11681   */\n      swap3\n      swap2\n      pop\n      pop\n      jump\t// out\n        /* \"#utility.yul\":11687:11881   */\n    tag_168:\n        /* \"#utility.yul\":11727:11731   */\n      0x00\n        /* \"#utility.yul\":11747:11767   */\n      tag_319\n        /* \"#utility.yul\":11765:11766   */\n      dup3\n        /* \"#utility.yul\":11747:11767   */\n      tag_191\n      jump\t// in\n    tag_319:\n        /* \"#utility.yul\":11742:11767   */\n      swap2\n      pop\n        /* \"#utility.yul\":11781:11801   */\n      tag_320\n        /* \"#utility.yul\":11799:11800   */\n      dup4\n        /* \"#utility.yul\":11781:11801   */\n      tag_191\n      jump\t// in\n    tag_320:\n        /* \"#utility.yul\":11776:11801   */\n      swap3\n      pop\n        /* \"#utility.yul\":11825:11826   */\n      dup3\n        /* \"#utility.yul\":11822:11823   */\n      dup3\n        /* \"#utility.yul\":11818:11827   */\n      sub\n        /* \"#utility.yul\":11810:11827   */\n      swap1\n      pop\n        /* \"#utility.yul\":11849:11850   */\n      dup2\n        /* \"#utility.yul\":11843:11847   */\n      dup2\n        /* \"#utility.yul\":11840:11851   */\n      gt\n        /* \"#utility.yul\":11837:11874   */\n      iszero\n      tag_321\n      jumpi\n        /* \"#utility.yul\":11854:11872   */\n      tag_322\n      tag_217\n      jump\t// in\n    tag_322:\n        /* \"#utility.yul\":11837:11874   */\n    tag_321:\n        /* \"#utility.yul\":11687:11881   */\n      swap3\n      swap2\n      pop\n      pop\n      jump\t// out\n\n    auxdata: 0xa2646970667358221220449725109a2ade421b1572896cbb453198e50de8ca6cc26ff021b2b379ea1ba064736f6c63430008190033\n}\n",
				"bytecode": {
					"linkReferences": {},
					"object": "608060405234801561001057600080fd5b5033600073ffffffffffffffffffffffffffffffffffffffff168173ffffffffffffffffffffffffffffffffffffffff16036100845760006040517f1e4fbdf700000000000000000000000000000000000000000000000000000000815260040161007b91906101bc565b60405180910390fd5b610093816100b760201b60201c565b50426001819055506203f4806001546100ac9190610210565b600281905550610244565b60008060009054906101000a900473ffffffffffffffffffffffffffffffffffffffff169050816000806101000a81548173ffffffffffffffffffffffffffffffffffffffff021916908373ffffffffffffffffffffffffffffffffffffffff1602179055508173ffffffffffffffffffffffffffffffffffffffff168173ffffffffffffffffffffffffffffffffffffffff167f8be0079c531659141344cd1fd0a4f28419497f9722a3daafe3b4186f6b6457e060405160405180910390a35050565b600073ffffffffffffffffffffffffffffffffffffffff82169050919050565b60006101a68261017b565b9050919050565b6101b68161019b565b82525050565b60006020820190506101d160008301846101ad565b92915050565b6000819050919050565b7f4e487b7100000000000000000000000000000000000000000000000000000000600052601160045260246000fd5b600061021b826101d7565b9150610226836101d7565b925082820190508082111561023e5761023d6101e1565b5b92915050565b6113c1806102536000396000f3fe6080604052600436106100a75760003560e01c8063d6387ed811610064578063d6387ed814610198578063d75d0846146101c4578063e2f2e665146101ef578063ed88c68e1461021a578063efb98bcf14610224578063f2fde38b1461024f576100a7565b80633ccfd60b146100ac578063410a1d32146100c35780636f9fb98a14610100578063715018a61461012b5780638da5cb5b1461014257806396f300d41461016d575b600080fd5b3480156100b857600080fd5b506100c1610278565b005b3480156100cf57600080fd5b506100ea60048036038101906100e59190610e26565b61036f565b6040516100f79190610e6c565b60405180910390f35b34801561010c57600080fd5b506101156103b8565b6040516101229190610e6c565b60405180910390f35b34801561013757600080fd5b506101406103c0565b005b34801561014e57600080fd5b506101576103d4565b6040516101649190610e96565b60405180910390f35b34801561017957600080fd5b506101826103fd565b60405161018f9190610f6f565b60405180910390f35b3480156101a457600080fd5b506101ad61048b565b6040516101bb92919061104f565b60405180910390f35b3480156101d057600080fd5b506101d9610995565b6040516101e69190610e6c565b60405180910390f35b3480156101fb57600080fd5b5061020461099b565b6040516102119190610e6c565b60405180910390f35b6102226109a1565b005b34801561023057600080fd5b50610239610bc1565b6040516102469190610e6c565b60405180910390f35b34801561025b57600080fd5b5061027660048036038101906102719190610e26565b610bea565b005b610280610c70565b6000479050600081116102c8576040517f08c379a00000000000000000000000000000000000000000000000000000000081526004016102bf90611109565b60405180910390fd5b60006102d26103d4565b90508073ffffffffffffffffffffffffffffffffffffffff166108fc839081150290604051600060405180830381858888f1935050505015801561031a573d6000803e3d6000fd5b508073ffffffffffffffffffffffffffffffffffffffff167ff279e6a1f5e320cca91135676d9cb6e44ca8a08c0b88342bcdb1144f6511b5688342604051610363929190611129565b60405180910390a25050565b6000600360008373ffffffffffffffffffffffffffffffffffffffff1673ffffffffffffffffffffffffffffffffffffffff168152602001908152602001600020549050919050565b600047905090565b6103c8610c70565b6103d26000610cf7565b565b60008060009054906101000a900473ffffffffffffffffffffffffffffffffffffffff16905090565b6060600480548060200260200160405190810160405280929190818152602001828054801561048157602002820191906000526020600020905b8160009054906101000a900473ffffffffffffffffffffffffffffffffffffffff1673ffffffffffffffffffffffffffffffffffffffff1681526020019060010190808311610437575b5050505050905090565b6060806000600367ffffffffffffffff8111156104ab576104aa611152565b5b6040519080825280602002602001820160405280156104d95781602001602082028036833780820191505090505b5090506000600367ffffffffffffffff8111156104f9576104f8611152565b5b6040519080825280602002602001820160405280156105275781602001602082028036833780820191505090505b50905060005b600480549050811015610988576000600482815481106105505761054f611181565b5b9060005260206000200160009054906101000a900473ffffffffffffffffffffffffffffffffffffffff1690506000600360008373ffffffffffffffffffffffffffffffffffffffff1673ffffffffffffffffffffffffffffffffffffffff168152602001908152602001600020549050846002815181106105d5576105d4611181565b5b602002602001015181111561097957846000815181106105f8576105f7611181565b5b60200260200101518111156107c8578460018151811061061b5761061a611181565b5b60200260200101518560028151811061063757610636611181565b5b6020026020010181815250508360018151811061065757610656611181565b5b60200260200101518460028151811061067357610672611181565b5b602002602001019073ffffffffffffffffffffffffffffffffffffffff16908173ffffffffffffffffffffffffffffffffffffffff1681525050846000815181106106c1576106c0611181565b5b6020026020010151856001815181106106dd576106dc611181565b5b602002602001018181525050836000815181106106fd576106fc611181565b5b60200260200101518460018151811061071957610718611181565b5b602002602001019073ffffffffffffffffffffffffffffffffffffffff16908173ffffffffffffffffffffffffffffffffffffffff1681525050808560008151811061076857610767611181565b5b602002602001018181525050818460008151811061078957610788611181565b5b602002602001019073ffffffffffffffffffffffffffffffffffffffff16908173ffffffffffffffffffffffffffffffffffffffff1681525050610978565b846001815181106107dc576107db611181565b5b602002602001015181111561090657846001815181106107ff576107fe611181565b5b60200260200101518560028151811061081b5761081a611181565b5b6020026020010181815250508360018151811061083b5761083a611181565b5b60200260200101518460028151811061085757610856611181565b5b602002602001019073ffffffffffffffffffffffffffffffffffffffff16908173ffffffffffffffffffffffffffffffffffffffff168152505080856001815181106108a6576108a5611181565b5b60200260200101818152505081846001815181106108c7576108c6611181565b5b602002602001019073ffffffffffffffffffffffffffffffffffffffff16908173ffffffffffffffffffffffffffffffffffffffff1681525050610977565b808560028151811061091b5761091a611181565b5b602002602001018181525050818460028151811061093c5761093b611181565b5b602002602001019073ffffffffffffffffffffffffffffffffffffffff16908173ffffffffffffffffffffffffffffffffffffffff16815250505b5b5b5050808060010191505061052d565b5080829350935050509091565b60015481565b60025481565b6001544210156109e6576040517f08c379a00000000000000000000000000000000000000000000000000000000081526004016109dd906111fc565b60405180910390fd5b600254421115610a2b576040517f08c379a0000000000000000000000000000000000000000000000000000000008152600401610a2290611268565b60405180910390fd5b60003411610a6e576040517f08c379a0000000000000000000000000000000000000000000000000000000008152600401610a65906112d4565b60405180910390fd5b6000600360003373ffffffffffffffffffffffffffffffffffffffff1673ffffffffffffffffffffffffffffffffffffffff1681526020019081526020016000205403610b19576004339080600181540180825580915050600190039060005260206000200160009091909190916101000a81548173ffffffffffffffffffffffffffffffffffffffff021916908373ffffffffffffffffffffffffffffffffffffffff1602179055505b34600360003373ffffffffffffffffffffffffffffffffffffffff1673ffffffffffffffffffffffffffffffffffffffff1681526020019081526020016000206000828254610b689190611323565b925050819055503373ffffffffffffffffffffffffffffffffffffffff167f106aac375bbcf013d1e52338bbf9e740009a1a3a6869f8daa1b72aa1620f5fec3442604051610bb7929190611129565b60405180910390a2565b6000600254421115610bd65760009050610be7565b42600254610be49190611357565b90505b90565b610bf2610c70565b600073ffffffffffffffffffffffffffffffffffffffff168173ffffffffffffffffffffffffffffffffffffffff1603610c645760006040517f1e4fbdf7000000000000000000000000000000000000000000000000000000008152600401610c5b9190610e96565b60405180910390fd5b610c6d81610cf7565b50565b610c78610dbb565b73ffffffffffffffffffffffffffffffffffffffff16610c966103d4565b73ffffffffffffffffffffffffffffffffffffffff1614610cf557610cb9610dbb565b6040517f118cdaa7000000000000000000000000000000000000000000000000000000008152600401610cec9190610e96565b60405180910390fd5b565b60008060009054906101000a900473ffffffffffffffffffffffffffffffffffffffff169050816000806101000a81548173ffffffffffffffffffffffffffffffffffffffff021916908373ffffffffffffffffffffffffffffffffffffffff1602179055508173ffffffffffffffffffffffffffffffffffffffff168173ffffffffffffffffffffffffffffffffffffffff167f8be0079c531659141344cd1fd0a4f28419497f9722a3daafe3b4186f6b6457e060405160405180910390a35050565b600033905090565b600080fd5b600073ffffffffffffffffffffffffffffffffffffffff82169050919050565b6000610df382610dc8565b9050919050565b610e0381610de8565b8114610e0e57600080fd5b50565b600081359050610e2081610dfa565b92915050565b600060208284031215610e3c57610e3b610dc3565b5b6000610e4a84828501610e11565b91505092915050565b6000819050919050565b610e6681610e53565b82525050565b6000602082019050610e816000830184610e5d565b92915050565b610e9081610de8565b82525050565b6000602082019050610eab6000830184610e87565b92915050565b600081519050919050565b600082825260208201905092915050565b6000819050602082019050919050565b610ee681610de8565b82525050565b6000610ef88383610edd565b60208301905092915050565b6000602082019050919050565b6000610f1c82610eb1565b610f268185610ebc565b9350610f3183610ecd565b8060005b83811015610f62578151610f498882610eec565b9750610f5483610f04565b925050600181019050610f35565b5085935050505092915050565b60006020820190508181036000830152610f898184610f11565b905092915050565b600081519050919050565b600082825260208201905092915050565b6000819050602082019050919050565b610fc681610e53565b82525050565b6000610fd88383610fbd565b60208301905092915050565b6000602082019050919050565b6000610ffc82610f91565b6110068185610f9c565b935061101183610fad565b8060005b838110156110425781516110298882610fcc565b975061103483610fe4565b925050600181019050611015565b5085935050505092915050565b600060408201905081810360008301526110698185610f11565b9050818103602083015261107d8184610ff1565b90509392505050565b600082825260208201905092915050565b7fe59088e7baa6e4b8ade6b2a1e69c89e58fafe68f90e58f96e79a84e8b584e98760008201527f9121000000000000000000000000000000000000000000000000000000000000602082015250565b60006110f3602283611086565b91506110fe82611097565b604082019050919050565b60006020820190508181036000830152611122816110e6565b9050919050565b600060408201905061113e6000830185610e5d565b61114b6020830184610e5d565b9392505050565b7f4e487b7100000000000000000000000000000000000000000000000000000000600052604160045260246000fd5b7f4e487b7100000000000000000000000000000000000000000000000000000000600052603260045260246000fd5b7fe68d90e8b5a0e69caae5bc80e5a78b0000000000000000000000000000000000600082015250565b60006111e6600f83611086565b91506111f1826111b0565b602082019050919050565b60006020820190508181036000830152611215816111d9565b9050919050565b7fe68d90e8b5a0e5b7b2e7bb93e69d9f0000000000000000000000000000000000600082015250565b6000611252600f83611086565b915061125d8261121c565b602082019050919050565b6000602082019050818103600083015261128181611245565b9050919050565b7fe68d90e8b5a0e98791e9a29de5bf85e9a1bbe5a4a7e4ba8e30efbc8100000000600082015250565b60006112be601c83611086565b91506112c982611288565b602082019050919050565b600060208201905081810360008301526112ed816112b1565b9050919050565b7f4e487b7100000000000000000000000000000000000000000000000000000000600052601160045260246000fd5b600061132e82610e53565b915061133983610e53565b9250828201905080821115611351576113506112f4565b5b92915050565b600061136282610e53565b915061136d83610e53565b9250828203905081811115611385576113846112f4565b5b9291505056fea2646970667358221220449725109a2ade421b1572896cbb453198e50de8ca6cc26ff021b2b379ea1ba064736f6c63430008190033",
					"opcodes": "PUSH1 0x80 PUSH1 0x40 MSTORE CALLVALUE DUP1 ISZERO PUSH2 0x10 JUMPI PUSH1 0x0 DUP1 REVERT JUMPDEST POP CALLER PUSH1 0x0 PUSH20 0xFFFFFFFFFFFFFFFFFFFFFFFFFFFFFFFFFFFFFFFF AND DUP2 PUSH20 0xFFFFFFFFFFFFFFFFFFFFFFFFFFFFFFFFFFFFFFFF AND SUB PUSH2 0x84 JUMPI PUSH1 0x0 PUSH1 0x40 MLOAD PUSH32 0x1E4FBDF700000000000000000000000000000000000000000000000000000000 DUP2 MSTORE PUSH1 0x4 ADD PUSH2 0x7B SWAP2 SWAP1 PUSH2 0x1BC JUMP JUMPDEST PUSH1 0x40 MLOAD DUP1 SWAP2 SUB SWAP1 REVERT JUMPDEST PUSH2 0x93 DUP2 PUSH2 0xB7 PUSH1 0x20 SHL PUSH1 0x20 SHR JUMP JUMPDEST POP TIMESTAMP PUSH1 0x1 DUP2 SWAP1 SSTORE POP PUSH3 0x3F480 PUSH1 0x1 SLOAD PUSH2 0xAC SWAP2 SWAP1 PUSH2 0x210 JUMP JUMPDEST PUSH1 0x2 DUP2 SWAP1 SSTORE POP PUSH2 0x244 JUMP JUMPDEST PUSH1 0x0 DUP1 PUSH1 0x0 SWAP1 SLOAD SWAP1 PUSH2 0x100 EXP SWAP1 DIV PUSH20 0xFFFFFFFFFFFFFFFFFFFFFFFFFFFFFFFFFFFFFFFF AND SWAP1 POP DUP2 PUSH1 0x0 DUP1 PUSH2 0x100 EXP DUP2 SLOAD DUP2 PUSH20 0xFFFFFFFFFFFFFFFFFFFFFFFFFFFFFFFFFFFFFFFF MUL NOT AND SWAP1 DUP4 PUSH20 0xFFFFFFFFFFFFFFFFFFFFFFFFFFFFFFFFFFFFFFFF AND MUL OR SWAP1 SSTORE POP DUP2 PUSH20 0xFFFFFFFFFFFFFFFFFFFFFFFFFFFFFFFFFFFFFFFF AND DUP2 PUSH20 0xFFFFFFFFFFFFFFFFFFFFFFFFFFFFFFFFFFFFFFFF AND PUSH32 0x8BE0079C531659141344CD1FD0A4F28419497F9722A3DAAFE3B4186F6B6457E0 PUSH1 0x40 MLOAD PUSH1 0x40 MLOAD DUP1 SWAP2 SUB SWAP1 LOG3 POP POP JUMP JUMPDEST PUSH1 0x0 PUSH20 0xFFFFFFFFFFFFFFFFFFFFFFFFFFFFFFFFFFFFFFFF DUP3 AND SWAP1 POP SWAP2 SWAP1 POP JUMP JUMPDEST PUSH1 0x0 PUSH2 0x1A6 DUP3 PUSH2 0x17B JUMP JUMPDEST SWAP1 POP SWAP2 SWAP1 POP JUMP JUMPDEST PUSH2 0x1B6 DUP2 PUSH2 0x19B JUMP JUMPDEST DUP3 MSTORE POP POP JUMP JUMPDEST PUSH1 0x0 PUSH1 0x20 DUP3 ADD SWAP1 POP PUSH2 0x1D1 PUSH1 0x0 DUP4 ADD DUP5 PUSH2 0x1AD JUMP JUMPDEST SWAP3 SWAP2 POP POP JUMP JUMPDEST PUSH1 0x0 DUP2 SWAP1 POP SWAP2 SWAP1 POP JUMP JUMPDEST PUSH32 0x4E487B7100000000000000000000000000000000000000000000000000000000 PUSH1 0x0 MSTORE PUSH1 0x11 PUSH1 0x4 MSTORE PUSH1 0x24 PUSH1 0x0 REVERT JUMPDEST PUSH1 0x0 PUSH2 0x21B DUP3 PUSH2 0x1D7 JUMP JUMPDEST SWAP2 POP PUSH2 0x226 DUP4 PUSH2 0x1D7 JUMP JUMPDEST SWAP3 POP DUP3 DUP3 ADD SWAP1 POP DUP1 DUP3 GT ISZERO PUSH2 0x23E JUMPI PUSH2 0x23D PUSH2 0x1E1 JUMP JUMPDEST JUMPDEST SWAP3 SWAP2 POP POP JUMP JUMPDEST PUSH2 0x13C1 DUP1 PUSH2 0x253 PUSH1 0x0 CODECOPY PUSH1 0x0 RETURN INVALID PUSH1 0x80 PUSH1 0x40 MSTORE PUSH1 0x4 CALLDATASIZE LT PUSH2 0xA7 JUMPI PUSH1 0x0 CALLDATALOAD PUSH1 0xE0 SHR DUP1 PUSH4 0xD6387ED8 GT PUSH2 0x64 JUMPI DUP1 PUSH4 0xD6387ED8 EQ PUSH2 0x198 JUMPI DUP1 PUSH4 0xD75D0846 EQ PUSH2 0x1C4 JUMPI DUP1 PUSH4 0xE2F2E665 EQ PUSH2 0x1EF JUMPI DUP1 PUSH4 0xED88C68E EQ PUSH2 0x21A JUMPI DUP1 PUSH4 0xEFB98BCF EQ PUSH2 0x224 JUMPI DUP1 PUSH4 0xF2FDE38B EQ PUSH2 0x24F JUMPI PUSH2 0xA7 JUMP JUMPDEST DUP1 PUSH4 0x3CCFD60B EQ PUSH2 0xAC JUMPI DUP1 PUSH4 0x410A1D32 EQ PUSH2 0xC3 JUMPI DUP1 PUSH4 0x6F9FB98A EQ PUSH2 0x100 JUMPI DUP1 PUSH4 0x715018A6 EQ PUSH2 0x12B JUMPI DUP1 PUSH4 0x8DA5CB5B EQ PUSH2 0x142 JUMPI DUP1 PUSH4 0x96F300D4 EQ PUSH2 0x16D JUMPI JUMPDEST PUSH1 0x0 DUP1 REVERT JUMPDEST CALLVALUE DUP1 ISZERO PUSH2 0xB8 JUMPI PUSH1 0x0 DUP1 REVERT JUMPDEST POP PUSH2 0xC1 PUSH2 0x278 JUMP JUMPDEST STOP JUMPDEST CALLVALUE DUP1 ISZERO PUSH2 0xCF JUMPI PUSH1 0x0 DUP1 REVERT JUMPDEST POP PUSH2 0xEA PUSH1 0x4 DUP1 CALLDATASIZE SUB DUP2 ADD SWAP1 PUSH2 0xE5 SWAP2 SWAP1 PUSH2 0xE26 JUMP JUMPDEST PUSH2 0x36F JUMP JUMPDEST PUSH1 0x40 MLOAD PUSH2 0xF7 SWAP2 SWAP1 PUSH2 0xE6C JUMP JUMPDEST PUSH1 0x40 MLOAD DUP1 SWAP2 SUB SWAP1 RETURN JUMPDEST CALLVALUE DUP1 ISZERO PUSH2 0x10C JUMPI PUSH1 0x0 DUP1 REVERT JUMPDEST POP PUSH2 0x115 PUSH2 0x3B8 JUMP JUMPDEST PUSH1 0x40 MLOAD PUSH2 0x122 SWAP2 SWAP1 PUSH2 0xE6C JUMP JUMPDEST PUSH1 0x40 MLOAD DUP1 SWAP2 SUB SWAP1 RETURN JUMPDEST CALLVALUE DUP1 ISZERO PUSH2 0x137 JUMPI PUSH1 0x0 DUP1 REVERT JUMPDEST POP PUSH2 0x140 PUSH2 0x3C0 JUMP JUMPDEST STOP JUMPDEST CALLVALUE DUP1 ISZERO PUSH2 0x14E JUMPI PUSH1 0x0 DUP1 REVERT JUMPDEST POP PUSH2 0x157 PUSH2 0x3D4 JUMP JUMPDEST PUSH1 0x40 MLOAD PUSH2 0x164 SWAP2 SWAP1 PUSH2 0xE96 JUMP JUMPDEST PUSH1 0x40 MLOAD DUP1 SWAP2 SUB SWAP1 RETURN JUMPDEST CALLVALUE DUP1 ISZERO PUSH2 0x179 JUMPI PUSH1 0x0 DUP1 REVERT JUMPDEST POP PUSH2 0x182 PUSH2 0x3FD JUMP JUMPDEST PUSH1 0x40 MLOAD PUSH2 0x18F SWAP2 SWAP1 PUSH2 0xF6F JUMP JUMPDEST PUSH1 0x40 MLOAD DUP1 SWAP2 SUB SWAP1 RETURN JUMPDEST CALLVALUE DUP1 ISZERO PUSH2 0x1A4 JUMPI PUSH1 0x0 DUP1 REVERT JUMPDEST POP PUSH2 0x1AD PUSH2 0x48B JUMP JUMPDEST PUSH1 0x40 MLOAD PUSH2 0x1BB SWAP3 SWAP2 SWAP1 PUSH2 0x104F JUMP JUMPDEST PUSH1 0x40 MLOAD DUP1 SWAP2 SUB SWAP1 RETURN JUMPDEST CALLVALUE DUP1 ISZERO PUSH2 0x1D0 JUMPI PUSH1 0x0 DUP1 REVERT JUMPDEST POP PUSH2 0x1D9 PUSH2 0x995 JUMP JUMPDEST PUSH1 0x40 MLOAD PUSH2 0x1E6 SWAP2 SWAP1 PUSH2 0xE6C JUMP JUMPDEST PUSH1 0x40 MLOAD DUP1 SWAP2 SUB SWAP1 RETURN JUMPDEST CALLVALUE DUP1 ISZERO PUSH2 0x1FB JUMPI PUSH1 0x0 DUP1 REVERT JUMPDEST POP PUSH2 0x204 PUSH2 0x99B JUMP JUMPDEST PUSH1 0x40 MLOAD PUSH2 0x211 SWAP2 SWAP1 PUSH2 0xE6C JUMP JUMPDEST PUSH1 0x40 MLOAD DUP1 SWAP2 SUB SWAP1 RETURN JUMPDEST PUSH2 0x222 PUSH2 0x9A1 JUMP JUMPDEST STOP JUMPDEST CALLVALUE DUP1 ISZERO PUSH2 0x230 JUMPI PUSH1 0x0 DUP1 REVERT JUMPDEST POP PUSH2 0x239 PUSH2 0xBC1 JUMP JUMPDEST PUSH1 0x40 MLOAD PUSH2 0x246 SWAP2 SWAP1 PUSH2 0xE6C JUMP JUMPDEST PUSH1 0x40 MLOAD DUP1 SWAP2 SUB SWAP1 RETURN JUMPDEST CALLVALUE DUP1 ISZERO PUSH2 0x25B JUMPI PUSH1 0x0 DUP1 REVERT JUMPDEST POP PUSH2 0x276 PUSH1 0x4 DUP1 CALLDATASIZE SUB DUP2 ADD SWAP1 PUSH2 0x271 SWAP2 SWAP1 PUSH2 0xE26 JUMP JUMPDEST PUSH2 0xBEA JUMP JUMPDEST STOP JUMPDEST PUSH2 0x280 PUSH2 0xC70 JUMP JUMPDEST PUSH1 0x0 SELFBALANCE SWAP1 POP PUSH1 0x0 DUP2 GT PUSH2 0x2C8 JUMPI PUSH1 0x40 MLOAD PUSH32 0x8C379A000000000000000000000000000000000000000000000000000000000 DUP2 MSTORE PUSH1 0x4 ADD PUSH2 0x2BF SWAP1 PUSH2 0x1109 JUMP JUMPDEST PUSH1 0x40 MLOAD DUP1 SWAP2 SUB SWAP1 REVERT JUMPDEST PUSH1 0x0 PUSH2 0x2D2 PUSH2 0x3D4 JUMP JUMPDEST SWAP1 POP DUP1 PUSH20 0xFFFFFFFFFFFFFFFFFFFFFFFFFFFFFFFFFFFFFFFF AND PUSH2 0x8FC DUP4 SWAP1 DUP2 ISZERO MUL SWAP1 PUSH1 0x40 MLOAD PUSH1 0x0 PUSH1 0x40 MLOAD DUP1 DUP4 SUB DUP2 DUP6 DUP9 DUP9 CALL SWAP4 POP POP POP POP ISZERO DUP1 ISZERO PUSH2 0x31A JUMPI RETURNDATASIZE PUSH1 0x0 DUP1 RETURNDATACOPY RETURNDATASIZE PUSH1 0x0 REVERT JUMPDEST POP DUP1 PUSH20 0xFFFFFFFFFFFFFFFFFFFFFFFFFFFFFFFFFFFFFFFF AND PUSH32 0xF279E6A1F5E320CCA91135676D9CB6E44CA8A08C0B88342BCDB1144F6511B568 DUP4 TIMESTAMP PUSH1 0x40 MLOAD PUSH2 0x363 SWAP3 SWAP2 SWAP1 PUSH2 0x1129 JUMP JUMPDEST PUSH1 0x40 MLOAD DUP1 SWAP2 SUB SWAP1 LOG2 POP POP JUMP JUMPDEST PUSH1 0x0 PUSH1 0x3 PUSH1 0x0 DUP4 PUSH20 0xFFFFFFFFFFFFFFFFFFFFFFFFFFFFFFFFFFFFFFFF AND PUSH20 0xFFFFFFFFFFFFFFFFFFFFFFFFFFFFFFFFFFFFFFFF AND DUP2 MSTORE PUSH1 0x20 ADD SWAP1 DUP2 MSTORE PUSH1 0x20 ADD PUSH1 0x0 KECCAK256 SLOAD SWAP1 POP SWAP2 SWAP1 POP JUMP JUMPDEST PUSH1 0x0 SELFBALANCE SWAP1 POP SWAP1 JUMP JUMPDEST PUSH2 0x3C8 PUSH2 0xC70 JUMP JUMPDEST PUSH2 0x3D2 PUSH1 0x0 PUSH2 0xCF7 JUMP JUMPDEST JUMP JUMPDEST PUSH1 0x0 DUP1 PUSH1 0x0 SWAP1 SLOAD SWAP1 PUSH2 0x100 EXP SWAP1 DIV PUSH20 0xFFFFFFFFFFFFFFFFFFFFFFFFFFFFFFFFFFFFFFFF AND SWAP1 POP SWAP1 JUMP JUMPDEST PUSH1 0x60 PUSH1 0x4 DUP1 SLOAD DUP1 PUSH1 0x20 MUL PUSH1 0x20 ADD PUSH1 0x40 MLOAD SWAP1 DUP2 ADD PUSH1 0x40 MSTORE DUP1 SWAP3 SWAP2 SWAP1 DUP2 DUP2 MSTORE PUSH1 0x20 ADD DUP3 DUP1 SLOAD DUP1 ISZERO PUSH2 0x481 JUMPI PUSH1 0x20 MUL DUP3 ADD SWAP2 SWAP1 PUSH1 0x0 MSTORE PUSH1 0x20 PUSH1 0x0 KECCAK256 SWAP1 JUMPDEST DUP2 PUSH1 0x0 SWAP1 SLOAD SWAP1 PUSH2 0x100 EXP SWAP1 DIV PUSH20 0xFFFFFFFFFFFFFFFFFFFFFFFFFFFFFFFFFFFFFFFF AND PUSH20 0xFFFFFFFFFFFFFFFFFFFFFFFFFFFFFFFFFFFFFFFF AND DUP2 MSTORE PUSH1 0x20 ADD SWAP1 PUSH1 0x1 ADD SWAP1 DUP1 DUP4 GT PUSH2 0x437 JUMPI JUMPDEST POP POP POP POP POP SWAP1 POP SWAP1 JUMP JUMPDEST PUSH1 0x60 DUP1 PUSH1 0x0 PUSH1 0x3 PUSH8 0xFFFFFFFFFFFFFFFF DUP2 GT ISZERO PUSH2 0x4AB JUMPI PUSH2 0x4AA PUSH2 0x1152 JUMP JUMPDEST JUMPDEST PUSH1 0x40 MLOAD SWAP1 DUP1 DUP3 MSTORE DUP1 PUSH1 0x20 MUL PUSH1 0x20 ADD DUP3 ADD PUSH1 0x40 MSTORE DUP1 ISZERO PUSH2 0x4D9 JUMPI DUP2 PUSH1 0x20 ADD PUSH1 0x20 DUP3 MUL DUP1 CALLDATASIZE DUP4 CALLDATACOPY DUP1 DUP3 ADD SWAP2 POP POP SWAP1 POP JUMPDEST POP SWAP1 POP PUSH1 0x0 PUSH1 0x3 PUSH8 0xFFFFFFFFFFFFFFFF DUP2 GT ISZERO PUSH2 0x4F9 JUMPI PUSH2 0x4F8 PUSH2 0x1152 JUMP JUMPDEST JUMPDEST PUSH1 0x40 MLOAD SWAP1 DUP1 DUP3 MSTORE DUP1 PUSH1 0x20 MUL PUSH1 0x20 ADD DUP3 ADD PUSH1 0x40 MSTORE DUP1 ISZERO PUSH2 0x527 JUMPI DUP2 PUSH1 0x20 ADD PUSH1 0x20 DUP3 MUL DUP1 CALLDATASIZE DUP4 CALLDATACOPY DUP1 DUP3 ADD SWAP2 POP POP SWAP1 POP JUMPDEST POP SWAP1 POP PUSH1 0x0 JUMPDEST PUSH1 0x4 DUP1 SLOAD SWAP1 POP DUP2 LT ISZERO PUSH2 0x988 JUMPI PUSH1 0x0 PUSH1 0x4 DUP3 DUP2 SLOAD DUP2 LT PUSH2 0x550 JUMPI PUSH2 0x54F PUSH2 0x1181 JUMP JUMPDEST JUMPDEST SWAP1 PUSH1 0x0 MSTORE PUSH1 0x20 PUSH1 0x0 KECCAK256 ADD PUSH1 0x0 SWAP1 SLOAD SWAP1 PUSH2 0x100 EXP SWAP1 DIV PUSH20 0xFFFFFFFFFFFFFFFFFFFFFFFFFFFFFFFFFFFFFFFF AND SWAP1 POP PUSH1 0x0 PUSH1 0x3 PUSH1 0x0 DUP4 PUSH20 0xFFFFFFFFFFFFFFFFFFFFFFFFFFFFFFFFFFFFFFFF AND PUSH20 0xFFFFFFFFFFFFFFFFFFFFFFFFFFFFFFFFFFFFFFFF AND DUP2 MSTORE PUSH1 0x20 ADD SWAP1 DUP2 MSTORE PUSH1 0x20 ADD PUSH1 0x0 KECCAK256 SLOAD SWAP1 POP DUP5 PUSH1 0x2 DUP2 MLOAD DUP2 LT PUSH2 0x5D5 JUMPI PUSH2 0x5D4 PUSH2 0x1181 JUMP JUMPDEST JUMPDEST PUSH1 0x20 MUL PUSH1 0x20 ADD ADD MLOAD DUP2 GT ISZERO PUSH2 0x979 JUMPI DUP5 PUSH1 0x0 DUP2 MLOAD DUP2 LT PUSH2 0x5F8 JUMPI PUSH2 0x5F7 PUSH2 0x1181 JUMP JUMPDEST JUMPDEST PUSH1 0x20 MUL PUSH1 0x20 ADD ADD MLOAD DUP2 GT ISZERO PUSH2 0x7C8 JUMPI DUP5 PUSH1 0x1 DUP2 MLOAD DUP2 LT PUSH2 0x61B JUMPI PUSH2 0x61A PUSH2 0x1181 JUMP JUMPDEST JUMPDEST PUSH1 0x20 MUL PUSH1 0x20 ADD ADD MLOAD DUP6 PUSH1 0x2 DUP2 MLOAD DUP2 LT PUSH2 0x637 JUMPI PUSH2 0x636 PUSH2 0x1181 JUMP JUMPDEST JUMPDEST PUSH1 0x20 MUL PUSH1 0x20 ADD ADD DUP2 DUP2 MSTORE POP POP DUP4 PUSH1 0x1 DUP2 MLOAD DUP2 LT PUSH2 0x657 JUMPI PUSH2 0x656 PUSH2 0x1181 JUMP JUMPDEST JUMPDEST PUSH1 0x20 MUL PUSH1 0x20 ADD ADD MLOAD DUP5 PUSH1 0x2 DUP2 MLOAD DUP2 LT PUSH2 0x673 JUMPI PUSH2 0x672 PUSH2 0x1181 JUMP JUMPDEST JUMPDEST PUSH1 0x20 MUL PUSH1 0x20 ADD ADD SWAP1 PUSH20 0xFFFFFFFFFFFFFFFFFFFFFFFFFFFFFFFFFFFFFFFF AND SWAP1 DUP2 PUSH20 0xFFFFFFFFFFFFFFFFFFFFFFFFFFFFFFFFFFFFFFFF AND DUP2 MSTORE POP POP DUP5 PUSH1 0x0 DUP2 MLOAD DUP2 LT PUSH2 0x6C1 JUMPI PUSH2 0x6C0 PUSH2 0x1181 JUMP JUMPDEST JUMPDEST PUSH1 0x20 MUL PUSH1 0x20 ADD ADD MLOAD DUP6 PUSH1 0x1 DUP2 MLOAD DUP2 LT PUSH2 0x6DD JUMPI PUSH2 0x6DC PUSH2 0x1181 JUMP JUMPDEST JUMPDEST PUSH1 0x20 MUL PUSH1 0x20 ADD ADD DUP2 DUP2 MSTORE POP POP DUP4 PUSH1 0x0 DUP2 MLOAD DUP2 LT PUSH2 0x6FD JUMPI PUSH2 0x6FC PUSH2 0x1181 JUMP JUMPDEST JUMPDEST PUSH1 0x20 MUL PUSH1 0x20 ADD ADD MLOAD DUP5 PUSH1 0x1 DUP2 MLOAD DUP2 LT PUSH2 0x719 JUMPI PUSH2 0x718 PUSH2 0x1181 JUMP JUMPDEST JUMPDEST PUSH1 0x20 MUL PUSH1 0x20 ADD ADD SWAP1 PUSH20 0xFFFFFFFFFFFFFFFFFFFFFFFFFFFFFFFFFFFFFFFF AND SWAP1 DUP2 PUSH20 0xFFFFFFFFFFFFFFFFFFFFFFFFFFFFFFFFFFFFFFFF AND DUP2 MSTORE POP POP DUP1 DUP6 PUSH1 0x0 DUP2 MLOAD DUP2 LT PUSH2 0x768 JUMPI PUSH2 0x767 PUSH2 0x1181 JUMP JUMPDEST JUMPDEST PUSH1 0x20 MUL PUSH1 0x20 ADD ADD DUP2 DUP2 MSTORE POP POP DUP2 DUP5 PUSH1 0x0 DUP2 MLOAD DUP2 LT PUSH2 0x789 JUMPI PUSH2 0x788 PUSH2 0x1181 JUMP JUMPDEST JUMPDEST PUSH1 0x20 MUL PUSH1 0x20 ADD ADD SWAP1 PUSH20 0xFFFFFFFFFFFFFFFFFFFFFFFFFFFFFFFFFFFFFFFF AND SWAP1 DUP2 PUSH20 0xFFFFFFFFFFFFFFFFFFFFFFFFFFFFFFFFFFFFFFFF AND DUP2 MSTORE POP POP PUSH2 0x978 JUMP JUMPDEST DUP5 PUSH1 0x1 DUP2 MLOAD DUP2 LT PUSH2 0x7DC JUMPI PUSH2 0x7DB PUSH2 0x1181 JUMP JUMPDEST JUMPDEST PUSH1 0x20 MUL PUSH1 0x20 ADD ADD MLOAD DUP2 GT ISZERO PUSH2 0x906 JUMPI DUP5 PUSH1 0x1 DUP2 MLOAD DUP2 LT PUSH2 0x7FF JUMPI PUSH2 0x7FE PUSH2 0x1181 JUMP JUMPDEST JUMPDEST PUSH1 0x20 MUL PUSH1 0x20 ADD ADD MLOAD DUP6 PUSH1 0x2 DUP2 MLOAD DUP2 LT PUSH2 0x81B JUMPI PUSH2 0x81A PUSH2 0x1181 JUMP JUMPDEST JUMPDEST PUSH1 0x20 MUL PUSH1 0x20 ADD ADD DUP2 DUP2 MSTORE POP POP DUP4 PUSH1 0x1 DUP2 MLOAD DUP2 LT PUSH2 0x83B JUMPI PUSH2 0x83A PUSH2 0x1181 JUMP JUMPDEST JUMPDEST PUSH1 0x20 MUL PUSH1 0x20 ADD ADD MLOAD DUP5 PUSH1 0x2 DUP2 MLOAD DUP2 LT PUSH2 0x857 JUMPI PUSH2 0x856 PUSH2 0x1181 JUMP JUMPDEST JUMPDEST PUSH1 0x20 MUL PUSH1 0x20 ADD ADD SWAP1 PUSH20 0xFFFFFFFFFFFFFFFFFFFFFFFFFFFFFFFFFFFFFFFF AND SWAP1 DUP2 PUSH20 0xFFFFFFFFFFFFFFFFFFFFFFFFFFFFFFFFFFFFFFFF AND DUP2 MSTORE POP POP DUP1 DUP6 PUSH1 0x1 DUP2 MLOAD DUP2 LT PUSH2 0x8A6 JUMPI PUSH2 0x8A5 PUSH2 0x1181 JUMP JUMPDEST JUMPDEST PUSH1 0x20 MUL PUSH1 0x20 ADD ADD DUP2 DUP2 MSTORE POP POP DUP2 DUP5 PUSH1 0x1 DUP2 MLOAD DUP2 LT PUSH2 0x8C7 JUMPI PUSH2 0x8C6 PUSH2 0x1181 JUMP JUMPDEST JUMPDEST PUSH1 0x20 MUL PUSH1 0x20 ADD ADD SWAP1 PUSH20 0xFFFFFFFFFFFFFFFFFFFFFFFFFFFFFFFFFFFFFFFF AND SWAP1 DUP2 PUSH20 0xFFFFFFFFFFFFFFFFFFFFFFFFFFFFFFFFFFFFFFFF AND DUP2 MSTORE POP POP PUSH2 0x977 JUMP JUMPDEST DUP1 DUP6 PUSH1 0x2 DUP2 MLOAD DUP2 LT PUSH2 0x91B JUMPI PUSH2 0x91A PUSH2 0x1181 JUMP JUMPDEST JUMPDEST PUSH1 0x20 MUL PUSH1 0x20 ADD ADD DUP2 DUP2 MSTORE POP POP DUP2 DUP5 PUSH1 0x2 DUP2 MLOAD DUP2 LT PUSH2 0x93C JUMPI PUSH2 0x93B PUSH2 0x1181 JUMP JUMPDEST JUMPDEST PUSH1 0x20 MUL PUSH1 0x20 ADD ADD SWAP1 PUSH20 0xFFFFFFFFFFFFFFFFFFFFFFFFFFFFFFFFFFFFFFFF AND SWAP1 DUP2 PUSH20 0xFFFFFFFFFFFFFFFFFFFFFFFFFFFFFFFFFFFFFFFF AND DUP2 MSTORE POP POP JUMPDEST JUMPDEST JUMPDEST POP POP DUP1 DUP1 PUSH1 0x1 ADD SWAP2 POP POP PUSH2 0x52D JUMP JUMPDEST POP DUP1 DUP3 SWAP4 POP SWAP4 POP POP POP SWAP1 SWAP2 JUMP JUMPDEST PUSH1 0x1 SLOAD DUP2 JUMP JUMPDEST PUSH1 0x2 SLOAD DUP2 JUMP JUMPDEST PUSH1 0x1 SLOAD TIMESTAMP LT ISZERO PUSH2 0x9E6 JUMPI PUSH1 0x40 MLOAD PUSH32 0x8C379A000000000000000000000000000000000000000000000000000000000 DUP2 MSTORE PUSH1 0x4 ADD PUSH2 0x9DD SWAP1 PUSH2 0x11FC JUMP JUMPDEST PUSH1 0x40 MLOAD DUP1 SWAP2 SUB SWAP1 REVERT JUMPDEST PUSH1 0x2 SLOAD TIMESTAMP GT ISZERO PUSH2 0xA2B JUMPI PUSH1 0x40 MLOAD PUSH32 0x8C379A000000000000000000000000000000000000000000000000000000000 DUP2 MSTORE PUSH1 0x4 ADD PUSH2 0xA22 SWAP1 PUSH2 0x1268 JUMP JUMPDEST PUSH1 0x40 MLOAD DUP1 SWAP2 SUB SWAP1 REVERT JUMPDEST PUSH1 0x0 CALLVALUE GT PUSH2 0xA6E JUMPI PUSH1 0x40 MLOAD PUSH32 0x8C379A000000000000000000000000000000000000000000000000000000000 DUP2 MSTORE PUSH1 0x4 ADD PUSH2 0xA65 SWAP1 PUSH2 0x12D4 JUMP JUMPDEST PUSH1 0x40 MLOAD DUP1 SWAP2 SUB SWAP1 REVERT JUMPDEST PUSH1 0x0 PUSH1 0x3 PUSH1 0x0 CALLER PUSH20 0xFFFFFFFFFFFFFFFFFFFFFFFFFFFFFFFFFFFFFFFF AND PUSH20 0xFFFFFFFFFFFFFFFFFFFFFFFFFFFFFFFFFFFFFFFF AND DUP2 MSTORE PUSH1 0x20 ADD SWAP1 DUP2 MSTORE PUSH1 0x20 ADD PUSH1 0x0 KECCAK256 SLOAD SUB PUSH2 0xB19 JUMPI PUSH1 0x4 CALLER SWAP1 DUP1 PUSH1 0x1 DUP2 SLOAD ADD DUP1 DUP3 SSTORE DUP1 SWAP2 POP POP PUSH1 0x1 SWAP1 SUB SWAP1 PUSH1 0x0 MSTORE PUSH1 0x20 PUSH1 0x0 KECCAK256 ADD PUSH1 0x0 SWAP1 SWAP2 SWAP1 SWAP2 SWAP1 SWAP2 PUSH2 0x100 EXP DUP2 SLOAD DUP2 PUSH20 0xFFFFFFFFFFFFFFFFFFFFFFFFFFFFFFFFFFFFFFFF MUL NOT AND SWAP1 DUP4 PUSH20 0xFFFFFFFFFFFFFFFFFFFFFFFFFFFFFFFFFFFFFFFF AND MUL OR SWAP1 SSTORE POP JUMPDEST CALLVALUE PUSH1 0x3 PUSH1 0x0 CALLER PUSH20 0xFFFFFFFFFFFFFFFFFFFFFFFFFFFFFFFFFFFFFFFF AND PUSH20 0xFFFFFFFFFFFFFFFFFFFFFFFFFFFFFFFFFFFFFFFF AND DUP2 MSTORE PUSH1 0x20 ADD SWAP1 DUP2 MSTORE PUSH1 0x20 ADD PUSH1 0x0 KECCAK256 PUSH1 0x0 DUP3 DUP3 SLOAD PUSH2 0xB68 SWAP2 SWAP1 PUSH2 0x1323 JUMP JUMPDEST SWAP3 POP POP DUP2 SWAP1 SSTORE POP CALLER PUSH20 0xFFFFFFFFFFFFFFFFFFFFFFFFFFFFFFFFFFFFFFFF AND PUSH32 0x106AAC375BBCF013D1E52338BBF9E740009A1A3A6869F8DAA1B72AA1620F5FEC CALLVALUE TIMESTAMP PUSH1 0x40 MLOAD PUSH2 0xBB7 SWAP3 SWAP2 SWAP1 PUSH2 0x1129 JUMP JUMPDEST PUSH1 0x40 MLOAD DUP1 SWAP2 SUB SWAP1 LOG2 JUMP JUMPDEST PUSH1 0x0 PUSH1 0x2 SLOAD TIMESTAMP GT ISZERO PUSH2 0xBD6 JUMPI PUSH1 0x0 SWAP1 POP PUSH2 0xBE7 JUMP JUMPDEST TIMESTAMP PUSH1 0x2 SLOAD PUSH2 0xBE4 SWAP2 SWAP1 PUSH2 0x1357 JUMP JUMPDEST SWAP1 POP JUMPDEST SWAP1 JUMP JUMPDEST PUSH2 0xBF2 PUSH2 0xC70 JUMP JUMPDEST PUSH1 0x0 PUSH20 0xFFFFFFFFFFFFFFFFFFFFFFFFFFFFFFFFFFFFFFFF AND DUP2 PUSH20 0xFFFFFFFFFFFFFFFFFFFFFFFFFFFFFFFFFFFFFFFF AND SUB PUSH2 0xC64 JUMPI PUSH1 0x0 PUSH1 0x40 MLOAD PUSH32 0x1E4FBDF700000000000000000000000000000000000000000000000000000000 DUP2 MSTORE PUSH1 0x4 ADD PUSH2 0xC5B SWAP2 SWAP1 PUSH2 0xE96 JUMP JUMPDEST PUSH1 0x40 MLOAD DUP1 SWAP2 SUB SWAP1 REVERT JUMPDEST PUSH2 0xC6D DUP2 PUSH2 0xCF7 JUMP JUMPDEST POP JUMP JUMPDEST PUSH2 0xC78 PUSH2 0xDBB JUMP JUMPDEST PUSH20 0xFFFFFFFFFFFFFFFFFFFFFFFFFFFFFFFFFFFFFFFF AND PUSH2 0xC96 PUSH2 0x3D4 JUMP JUMPDEST PUSH20 0xFFFFFFFFFFFFFFFFFFFFFFFFFFFFFFFFFFFFFFFF AND EQ PUSH2 0xCF5 JUMPI PUSH2 0xCB9 PUSH2 0xDBB JUMP JUMPDEST PUSH1 0x40 MLOAD PUSH32 0x118CDAA700000000000000000000000000000000000000000000000000000000 DUP2 MSTORE PUSH1 0x4 ADD PUSH2 0xCEC SWAP2 SWAP1 PUSH2 0xE96 JUMP JUMPDEST PUSH1 0x40 MLOAD DUP1 SWAP2 SUB SWAP1 REVERT JUMPDEST JUMP JUMPDEST PUSH1 0x0 DUP1 PUSH1 0x0 SWAP1 SLOAD SWAP1 PUSH2 0x100 EXP SWAP1 DIV PUSH20 0xFFFFFFFFFFFFFFFFFFFFFFFFFFFFFFFFFFFFFFFF AND SWAP1 POP DUP2 PUSH1 0x0 DUP1 PUSH2 0x100 EXP DUP2 SLOAD DUP2 PUSH20 0xFFFFFFFFFFFFFFFFFFFFFFFFFFFFFFFFFFFFFFFF MUL NOT AND SWAP1 DUP4 PUSH20 0xFFFFFFFFFFFFFFFFFFFFFFFFFFFFFFFFFFFFFFFF AND MUL OR SWAP1 SSTORE POP DUP2 PUSH20 0xFFFFFFFFFFFFFFFFFFFFFFFFFFFFFFFFFFFFFFFF AND DUP2 PUSH20 0xFFFFFFFFFFFFFFFFFFFFFFFFFFFFFFFFFFFFFFFF AND PUSH32 0x8BE0079C531659141344CD1FD0A4F28419497F9722A3DAAFE3B4186F6B6457E0 PUSH1 0x40 MLOAD PUSH1 0x40 MLOAD DUP1 SWAP2 SUB SWAP1 LOG3 POP POP JUMP JUMPDEST PUSH1 0x0 CALLER SWAP1 POP SWAP1 JUMP JUMPDEST PUSH1 0x0 DUP1 REVERT JUMPDEST PUSH1 0x0 PUSH20 0xFFFFFFFFFFFFFFFFFFFFFFFFFFFFFFFFFFFFFFFF DUP3 AND SWAP1 POP SWAP2 SWAP1 POP JUMP JUMPDEST PUSH1 0x0 PUSH2 0xDF3 DUP3 PUSH2 0xDC8 JUMP JUMPDEST SWAP1 POP SWAP2 SWAP1 POP JUMP JUMPDEST PUSH2 0xE03 DUP2 PUSH2 0xDE8 JUMP JUMPDEST DUP2 EQ PUSH2 0xE0E JUMPI PUSH1 0x0 DUP1 REVERT JUMPDEST POP JUMP JUMPDEST PUSH1 0x0 DUP2 CALLDATALOAD SWAP1 POP PUSH2 0xE20 DUP2 PUSH2 0xDFA JUMP JUMPDEST SWAP3 SWAP2 POP POP JUMP JUMPDEST PUSH1 0x0 PUSH1 0x20 DUP3 DUP5 SUB SLT ISZERO PUSH2 0xE3C JUMPI PUSH2 0xE3B PUSH2 0xDC3 JUMP JUMPDEST JUMPDEST PUSH1 0x0 PUSH2 0xE4A DUP5 DUP3 DUP6 ADD PUSH2 0xE11 JUMP JUMPDEST SWAP2 POP POP SWAP3 SWAP2 POP POP JUMP JUMPDEST PUSH1 0x0 DUP2 SWAP1 POP SWAP2 SWAP1 POP JUMP JUMPDEST PUSH2 0xE66 DUP2 PUSH2 0xE53 JUMP JUMPDEST DUP3 MSTORE POP POP JUMP JUMPDEST PUSH1 0x0 PUSH1 0x20 DUP3 ADD SWAP1 POP PUSH2 0xE81 PUSH1 0x0 DUP4 ADD DUP5 PUSH2 0xE5D JUMP JUMPDEST SWAP3 SWAP2 POP POP JUMP JUMPDEST PUSH2 0xE90 DUP2 PUSH2 0xDE8 JUMP JUMPDEST DUP3 MSTORE POP POP JUMP JUMPDEST PUSH1 0x0 PUSH1 0x20 DUP3 ADD SWAP1 POP PUSH2 0xEAB PUSH1 0x0 DUP4 ADD DUP5 PUSH2 0xE87 JUMP JUMPDEST SWAP3 SWAP2 POP POP JUMP JUMPDEST PUSH1 0x0 DUP2 MLOAD SWAP1 POP SWAP2 SWAP1 POP JUMP JUMPDEST PUSH1 0x0 DUP3 DUP3 MSTORE PUSH1 0x20 DUP3 ADD SWAP1 POP SWAP3 SWAP2 POP POP JUMP JUMPDEST PUSH1 0x0 DUP2 SWAP1 POP PUSH1 0x20 DUP3 ADD SWAP1 POP SWAP2 SWAP1 POP JUMP JUMPDEST PUSH2 0xEE6 DUP2 PUSH2 0xDE8 JUMP JUMPDEST DUP3 MSTORE POP POP JUMP JUMPDEST PUSH1 0x0 PUSH2 0xEF8 DUP4 DUP4 PUSH2 0xEDD JUMP JUMPDEST PUSH1 0x20 DUP4 ADD SWAP1 POP SWAP3 SWAP2 POP POP JUMP JUMPDEST PUSH1 0x0 PUSH1 0x20 DUP3 ADD SWAP1 POP SWAP2 SWAP1 POP JUMP JUMPDEST PUSH1 0x0 PUSH2 0xF1C DUP3 PUSH2 0xEB1 JUMP JUMPDEST PUSH2 0xF26 DUP2 DUP6 PUSH2 0xEBC JUMP JUMPDEST SWAP4 POP PUSH2 0xF31 DUP4 PUSH2 0xECD JUMP JUMPDEST DUP1 PUSH1 0x0 JUMPDEST DUP4 DUP2 LT ISZERO PUSH2 0xF62 JUMPI DUP2 MLOAD PUSH2 0xF49 DUP9 DUP3 PUSH2 0xEEC JUMP JUMPDEST SWAP8 POP PUSH2 0xF54 DUP4 PUSH2 0xF04 JUMP JUMPDEST SWAP3 POP POP PUSH1 0x1 DUP2 ADD SWAP1 POP PUSH2 0xF35 JUMP JUMPDEST POP DUP6 SWAP4 POP POP POP POP SWAP3 SWAP2 POP POP JUMP JUMPDEST PUSH1 0x0 PUSH1 0x20 DUP3 ADD SWAP1 POP DUP2 DUP2 SUB PUSH1 0x0 DUP4 ADD MSTORE PUSH2 0xF89 DUP2 DUP5 PUSH2 0xF11 JUMP JUMPDEST SWAP1 POP SWAP3 SWAP2 POP POP JUMP JUMPDEST PUSH1 0x0 DUP2 MLOAD SWAP1 POP SWAP2 SWAP1 POP JUMP JUMPDEST PUSH1 0x0 DUP3 DUP3 MSTORE PUSH1 0x20 DUP3 ADD SWAP1 POP SWAP3 SWAP2 POP POP JUMP JUMPDEST PUSH1 0x0 DUP2 SWAP1 POP PUSH1 0x20 DUP3 ADD SWAP1 POP SWAP2 SWAP1 POP JUMP JUMPDEST PUSH2 0xFC6 DUP2 PUSH2 0xE53 JUMP JUMPDEST DUP3 MSTORE POP POP JUMP JUMPDEST PUSH1 0x0 PUSH2 0xFD8 DUP4 DUP4 PUSH2 0xFBD JUMP JUMPDEST PUSH1 0x20 DUP4 ADD SWAP1 POP SWAP3 SWAP2 POP POP JUMP JUMPDEST PUSH1 0x0 PUSH1 0x20 DUP3 ADD SWAP1 POP SWAP2 SWAP1 POP JUMP JUMPDEST PUSH1 0x0 PUSH2 0xFFC DUP3 PUSH2 0xF91 JUMP JUMPDEST PUSH2 0x1006 DUP2 DUP6 PUSH2 0xF9C JUMP JUMPDEST SWAP4 POP PUSH2 0x1011 DUP4 PUSH2 0xFAD JUMP JUMPDEST DUP1 PUSH1 0x0 JUMPDEST DUP4 DUP2 LT ISZERO PUSH2 0x1042 JUMPI DUP2 MLOAD PUSH2 0x1029 DUP9 DUP3 PUSH2 0xFCC JUMP JUMPDEST SWAP8 POP PUSH2 0x1034 DUP4 PUSH2 0xFE4 JUMP JUMPDEST SWAP3 POP POP PUSH1 0x1 DUP2 ADD SWAP1 POP PUSH2 0x1015 JUMP JUMPDEST POP DUP6 SWAP4 POP POP POP POP SWAP3 SWAP2 POP POP JUMP JUMPDEST PUSH1 0x0 PUSH1 0x40 DUP3 ADD SWAP1 POP DUP2 DUP2 SUB PUSH1 0x0 DUP4 ADD MSTORE PUSH2 0x1069 DUP2 DUP6 PUSH2 0xF11 JUMP JUMPDEST SWAP1 POP DUP2 DUP2 SUB PUSH1 0x20 DUP4 ADD MSTORE PUSH2 0x107D DUP2 DUP5 PUSH2 0xFF1 JUMP JUMPDEST SWAP1 POP SWAP4 SWAP3 POP POP POP JUMP JUMPDEST PUSH1 0x0 DUP3 DUP3 MSTORE PUSH1 0x20 DUP3 ADD SWAP1 POP SWAP3 SWAP2 POP POP JUMP JUMPDEST PUSH32 0xE59088E7BAA6E4B8ADE6B2A1E69C89E58FAFE68F90E58F96E79A84E8B584E987 PUSH1 0x0 DUP3 ADD MSTORE PUSH32 0x9121000000000000000000000000000000000000000000000000000000000000 PUSH1 0x20 DUP3 ADD MSTORE POP JUMP JUMPDEST PUSH1 0x0 PUSH2 0x10F3 PUSH1 0x22 DUP4 PUSH2 0x1086 JUMP JUMPDEST SWAP2 POP PUSH2 0x10FE DUP3 PUSH2 0x1097 JUMP JUMPDEST PUSH1 0x40 DUP3 ADD SWAP1 POP SWAP2 SWAP1 POP JUMP JUMPDEST PUSH1 0x0 PUSH1 0x20 DUP3 ADD SWAP1 POP DUP2 DUP2 SUB PUSH1 0x0 DUP4 ADD MSTORE PUSH2 0x1122 DUP2 PUSH2 0x10E6 JUMP JUMPDEST SWAP1 POP SWAP2 SWAP1 POP JUMP JUMPDEST PUSH1 0x0 PUSH1 0x40 DUP3 ADD SWAP1 POP PUSH2 0x113E PUSH1 0x0 DUP4 ADD DUP6 PUSH2 0xE5D JUMP JUMPDEST PUSH2 0x114B PUSH1 0x20 DUP4 ADD DUP5 PUSH2 0xE5D JUMP JUMPDEST SWAP4 SWAP3 POP POP POP JUMP JUMPDEST PUSH32 0x4E487B7100000000000000000000000000000000000000000000000000000000 PUSH1 0x0 MSTORE PUSH1 0x41 PUSH1 0x4 MSTORE PUSH1 0x24 PUSH1 0x0 REVERT JUMPDEST PUSH32 0x4E487B7100000000000000000000000000000000000000000000000000000000 PUSH1 0x0 MSTORE PUSH1 0x32 PUSH1 0x4 MSTORE PUSH1 0x24 PUSH1 0x0 REVERT JUMPDEST PUSH32 0xE68D90E8B5A0E69CAAE5BC80E5A78B0000000000000000000000000000000000 PUSH1 0x0 DUP3 ADD MSTORE POP JUMP JUMPDEST PUSH1 0x0 PUSH2 0x11E6 PUSH1 0xF DUP4 PUSH2 0x1086 JUMP JUMPDEST SWAP2 POP PUSH2 0x11F1 DUP3 PUSH2 0x11B0 JUMP JUMPDEST PUSH1 0x20 DUP3 ADD SWAP1 POP SWAP2 SWAP1 POP JUMP JUMPDEST PUSH1 0x0 PUSH1 0x20 DUP3 ADD SWAP1 POP DUP2 DUP2 SUB PUSH1 0x0 DUP4 ADD MSTORE PUSH2 0x1215 DUP2 PUSH2 0x11D9 JUMP JUMPDEST SWAP1 POP SWAP2 SWAP1 POP JUMP JUMPDEST PUSH32 0xE68D90E8B5A0E5B7B2E7BB93E69D9F0000000000000000000000000000000000 PUSH1 0x0 DUP3 ADD MSTORE POP JUMP JUMPDEST PUSH1 0x0 PUSH2 0x1252 PUSH1 0xF DUP4 PUSH2 0x1086 JUMP JUMPDEST SWAP2 POP PUSH2 0x125D DUP3 PUSH2 0x121C JUMP JUMPDEST PUSH1 0x20 DUP3 ADD SWAP1 POP SWAP2 SWAP1 POP JUMP JUMPDEST PUSH1 0x0 PUSH1 0x20 DUP3 ADD SWAP1 POP DUP2 DUP2 SUB PUSH1 0x0 DUP4 ADD MSTORE PUSH2 0x1281 DUP2 PUSH2 0x1245 JUMP JUMPDEST SWAP1 POP SWAP2 SWAP1 POP JUMP JUMPDEST PUSH32 0xE68D90E8B5A0E98791E9A29DE5BF85E9A1BBE5A4A7E4BA8E30EFBC8100000000 PUSH1 0x0 DUP3 ADD MSTORE POP JUMP JUMPDEST PUSH1 0x0 PUSH2 0x12BE PUSH1 0x1C DUP4 PUSH2 0x1086 JUMP JUMPDEST SWAP2 POP PUSH2 0x12C9 DUP3 PUSH2 0x1288 JUMP JUMPDEST PUSH1 0x20 DUP3 ADD SWAP1 POP SWAP2 SWAP1 POP JUMP JUMPDEST PUSH1 0x0 PUSH1 0x20 DUP3 ADD SWAP1 POP DUP2 DUP2 SUB PUSH1 0x0 DUP4 ADD MSTORE PUSH2 0x12ED DUP2 PUSH2 0x12B1 JUMP JUMPDEST SWAP1 POP SWAP2 SWAP1 POP JUMP JUMPDEST PUSH32 0x4E487B7100000000000000000000000000000000000000000000000000000000 PUSH1 0x0 MSTORE PUSH1 0x11 PUSH1 0x4 MSTORE PUSH1 0x24 PUSH1 0x0 REVERT JUMPDEST PUSH1 0x0 PUSH2 0x132E DUP3 PUSH2 0xE53 JUMP JUMPDEST SWAP2 POP PUSH2 0x1339 DUP4 PUSH2 0xE53 JUMP JUMPDEST SWAP3 POP DUP3 DUP3 ADD SWAP1 POP DUP1 DUP3 GT ISZERO PUSH2 0x1351 JUMPI PUSH2 0x1350 PUSH2 0x12F4 JUMP JUMPDEST JUMPDEST SWAP3 SWAP2 POP POP JUMP JUMPDEST PUSH1 0x0 PUSH2 0x1362 DUP3 PUSH2 0xE53 JUMP JUMPDEST SWAP2 POP PUSH2 0x136D DUP4 PUSH2 0xE53 JUMP JUMPDEST SWAP3 POP DUP3 DUP3 SUB SWAP1 POP DUP2 DUP2 GT ISZERO PUSH2 0x1385 JUMPI PUSH2 0x1384 PUSH2 0x12F4 JUMP JUMPDEST JUMPDEST SWAP3 SWAP2 POP POP JUMP INVALID LOG2 PUSH5 0x6970667358 0x22 SLT KECCAK256 DIFFICULTY SWAP8 0x25 LT SWAP11 0x2A 0xDE TIMESTAMP SHL ISZERO PUSH19 0x896CBB453198E50DE8CA6CC26FF021B2B379EA SHL LOG0 PUSH5 0x736F6C6343 STOP ADDMOD NOT STOP CALLER "
				},
				"gasEstimates": {
					"creation": {
						"codeDepositCost": "1011400",
						"executionCost": "infinite",
						"totalCost": "infinite"
					},
					"external": {
						"donate()": "infinite",
						"donationEndTimestamp()": "2473",
						"donationStartTimestamp()": "2451",
						"getContractBalance()": "384",
						"getDonation(address)": "2864",
						"getDonors()": "infinite",
						"getRemainingTime()": "infinite",
						"getTopDonors()": "infinite",
						"owner()": "2611",
						"renounceOwnership()": "infinite",
						"transferOwnership(address)": "infinite",
						"withdraw()": "infinite"
					}
				},
				"methodIdentifiers": {
					"donate()": "ed88c68e",
					"donationEndTimestamp()": "e2f2e665",
					"donationStartTimestamp()": "d75d0846",
					"getContractBalance()": "6f9fb98a",
					"getDonation(address)": "410a1d32",
					"getDonors()": "96f300d4",
					"getRemainingTime()": "efb98bcf",
					"getTopDonors()": "d6387ed8",
					"owner()": "8da5cb5b",
					"renounceOwnership()": "715018a6",
					"transferOwnership(address)": "f2fde38b",
					"withdraw()": "3ccfd60b"
				}
			},
			"storageLayout": {
				"storage": [
					{
						"astId": 8,
						"contract": "contracts/BeggingContract.sol:BeggingContract",
						"label": "_owner",
						"offset": 0,
						"slot": "0",
						"type": "t_address"
					},
					{
						"astId": 185,
						"contract": "contracts/BeggingContract.sol:BeggingContract",
						"label": "donationStartTimestamp",
						"offset": 0,
						"slot": "1",
						"type": "t_uint256"
					},
					{
						"astId": 187,
						"contract": "contracts/BeggingContract.sol:BeggingContract",
						"label": "donationEndTimestamp",
						"offset": 0,
						"slot": "2",
						"type": "t_uint256"
					},
					{
						"astId": 191,
						"contract": "contracts/BeggingContract.sol:BeggingContract",
						"label": "_donations",
						"offset": 0,
						"slot": "3",
						"type": "t_mapping(t_address,t_uint256)"
					},
					{
						"astId": 194,
						"contract": "contracts/BeggingContract.sol:BeggingContract",
						"label": "_donors",
						"offset": 0,
						"slot": "4",
						"type": "t_array(t_address)dyn_storage"
					}
				],
				"types": {
					"t_address": {
						"encoding": "inplace",
						"label": "address",
						"numberOfBytes": "20"
					},
					"t_array(t_address)dyn_storage": {
						"base": "t_address",
						"encoding": "dynamic_array",
						"label": "address[]",
						"numberOfBytes": "32"
					},
					"t_mapping(t_address,t_uint256)": {
						"encoding": "mapping",
						"key": "t_address",
						"label": "mapping(address => uint256)",
						"numberOfBytes": "32",
						"value": "t_uint256"
					},
					"t_uint256": {
						"encoding": "inplace",
						"label": "uint256",
						"numberOfBytes": "32"
					}
				}
			},
			"userdoc": {
				"kind": "user",
				"methods": {},
				"version": 1
			}
		}
	}
}